{
  "_format": "hh-sol-artifact-1",
  "contractName": "COSAV",
  "sourceName": "contracts/COSAV.sol",
  "abi": [
    {
      "inputs": [
        {
          "internalType": "address",
          "name": "_usdt",
          "type": "address"
        }
      ],
      "stateMutability": "nonpayable",
      "type": "constructor"
    },
    {
      "inputs": [],
      "name": "EARLY_PENALTY",
      "outputs": [
        {
          "internalType": "uint256",
          "name": "",
          "type": "uint256"
        }
      ],
      "stateMutability": "view",
      "type": "function"
    },
    {
      "inputs": [],
      "name": "LOCK_DAYS",
      "outputs": [
        {
          "internalType": "uint256",
          "name": "",
          "type": "uint256"
        }
      ],
      "stateMutability": "view",
      "type": "function"
    },
    {
      "inputs": [
        {
          "internalType": "uint256",
          "name": "amount",
          "type": "uint256"
        }
      ],
      "name": "deposit",
      "outputs": [],
      "stateMutability": "nonpayable",
      "type": "function"
    },
    {
      "inputs": [
        {
          "internalType": "address",
          "name": "",
          "type": "address"
        }
      ],
      "name": "savings",
      "outputs": [
        {
          "internalType": "uint256",
          "name": "totalDeposited",
          "type": "uint256"
        },
        {
          "internalType": "uint256",
          "name": "startTime",
          "type": "uint256"
        },
        {
          "internalType": "bool",
          "name": "active",
          "type": "bool"
        }
      ],
      "stateMutability": "view",
      "type": "function"
    },
    {
      "inputs": [
        {
          "internalType": "uint256",
          "name": "amount",
          "type": "uint256"
        }
      ],
      "name": "startSaving",
      "outputs": [],
      "stateMutability": "nonpayable",
      "type": "function"
    },
    {
      "inputs": [],
      "name": "usdt",
      "outputs": [
        {
          "internalType": "contract IERC20",
          "name": "",
          "type": "address"
        }
      ],
      "stateMutability": "view",
      "type": "function"
    },
    {
      "inputs": [],
      "name": "withdraw",
      "outputs": [],
      "stateMutability": "nonpayable",
      "type": "function"
    }
  ],
  "bytecode": "0x608060405234801561001057600080fd5b506040516106dd3803806106dd83398101604081905261002f91610054565b600080546001600160a01b0319166001600160a01b0392909216919091179055610084565b60006020828403121561006657600080fd5b81516001600160a01b038116811461007d57600080fd5b9392505050565b61064a806100936000396000f3fe608060405234801561001057600080fd5b506004361061007d5760003560e01c80633ccfd60b1161005b5780633ccfd60b14610116578063b6b55f2514610120578063c12041ce14610133578063fc5c091a1461014657600080fd5b80631bcfeb38146100825780631f7cdd5f1461009d5780632f48ab7d146100eb575b600080fd5b61008a600a81565b6040519081526020015b60405180910390f35b6100ce6100ab36600461052e565b600160208190526000918252604090912080549181015460029091015460ff1683565b604080519384526020840192909252151590820152606001610094565b6000546100fe906001600160a01b031681565b6040516001600160a01b039091168152602001610094565b61011e61014e565b005b61011e61012e36600461055e565b610284565b61011e61014136600461055e565b6103c3565b61008a601e81565b336000908152600160205260409020600281015460ff166101a95760405162461bcd60e51b815260206004820152601060248201526f4e6f2061637469766520736176696e6760801b60448201526064015b60405180910390fd5b805460018201546000906101bd904261058d565b60028401805460ff1916905590506101d9601e620151806105a6565b81101561020957600060646101ef600a856105a6565b6101f991906105bd565b9050610205818461058d565b9250505b60005460405163a9059cbb60e01b8152336004820152602481018490526001600160a01b039091169063a9059cbb906044016020604051808303816000875af115801561025a573d6000803e3d6000fd5b505050506040513d601f19601f8201168201806040525081019061027e91906105df565b50505050565b3360009081526001602052604090206002015460ff166102d95760405162461bcd60e51b815260206004820152601060248201526f4e6f2061637469766520736176696e6760801b60448201526064016101a0565b620f42408110156103205760405162461bcd60e51b8152602060048201526011602482015270135a5b9a5b5d5b481a5cc80c481554d115607a1b60448201526064016101a0565b6000546040516323b872dd60e01b8152336004820152306024820152604481018390526001600160a01b03909116906323b872dd906064016020604051808303816000875af1158015610377573d6000803e3d6000fd5b505050506040513d601f19601f8201168201806040525081019061039b91906105df565b5033600090815260016020526040812080548392906103bb908490610601565b909155505050565b3360009081526001602052604090206002015460ff161561041e5760405162461bcd60e51b8152602060048201526015602482015274536176696e6720616c72656164792061637469766560581b60448201526064016101a0565b620f42408110156104655760405162461bcd60e51b8152602060048201526011602482015270135a5b9a5b5d5b481a5cc80c481554d115607a1b60448201526064016101a0565b6000546040516323b872dd60e01b8152336004820152306024820152604481018390526001600160a01b03909116906323b872dd906064016020604051808303816000875af11580156104bc573d6000803e3d6000fd5b505050506040513d601f19601f820116820180604052508101906104e091906105df565b50604080516060810182529182524260208084019182526001848401818152336000908152928290529390912093518455905190830155516002909101805460ff1916911515919091179055565b60006020828403121561054057600080fd5b81356001600160a01b038116811461055757600080fd5b9392505050565b60006020828403121561057057600080fd5b5035919050565b634e487b7160e01b600052601160045260246000fd5b818103818111156105a0576105a0610577565b92915050565b80820281158282048414176105a0576105a0610577565b6000826105da57634e487b7160e01b600052601260045260246000fd5b500490565b6000602082840312156105f157600080fd5b8151801515811461055757600080fd5b808201808211156105a0576105a061057756fea2646970667358221220bf17462b498366070039364784b3d076268d1f8f71224f87c0d8bbead056fe9964736f6c63430008140033",
  "linkReferences": {},
  "deployedLinkReferences": {}
}