{"contracts/CommitSaving.sol":{"CommitSaving":{"abi":[{"inputs":[{"internalType":"address","name":"usdtAddress","type":"address"},{"internalType":"address","name":"treasuryAddress","type":"address"},{"internalType":"uint256","name":"_earlyPenaltyPercent","type":"uint256"}],"stateMutability":"nonpayable","type":"constructor"},{"inputs":[],"name":"AccessControlBadConfirmation","type":"error"},{"inputs":[{"internalType":"address","name":"account","type":"address"},{"internalType":"bytes32","name":"neededRole","type":"bytes32"}],"name":"AccessControlUnauthorizedAccount","type":"error"},{"inputs":[{"internalType":"address","name":"token","type":"address"}],"name":"SafeERC20FailedOperation","type":"error"},{"anonymous":false,"inputs":[{"indexed":true,"internalType":"address","name":"admin","type":"address"},{"indexed":false,"internalType":"address","name":"badge","type":"address"}],"name":"BadgeContractSet","type":"event"},{"anonymous":false,"inputs":[{"indexed":true,"internalType":"address","name":"user","type":"address"},{"indexed":false,"internalType":"uint256","name":"completedDays","type":"uint256"}],"name":"CheckedIn","type":"event"},{"anonymous":false,"inputs":[{"indexed":true,"internalType":"address","name":"user","type":"address"},{"indexed":false,"internalType":"uint256","name":"totalAmount","type":"uint256"},{"indexed":false,"internalType":"uint256","name":"dailyAmount","type":"uint256"},{"indexed":false,"internalType":"uint256","name":"durationDays","type":"uint256"}],"name":"CommitStarted","type":"event"},{"anonymous":false,"inputs":[{"indexed":true,"internalType":"address","name":"user","type":"address"},{"indexed":false,"internalType":"uint256","name":"amountAfterPenalty","type":"uint256"}],"name":"EarlyWithdrawn","type":"event"},{"anonymous":false,"inputs":[{"indexed":true,"internalType":"address","name":"user","type":"address"},{"indexed":false,"internalType":"uint256","name":"returnedAmount","type":"uint256"}],"name":"Finalized","type":"event"},{"anonymous":false,"inputs":[{"indexed":true,"internalType":"bytes32","name":"role","type":"bytes32"},{"indexed":true,"internalType":"bytes32","name":"previousAdminRole","type":"bytes32"},{"indexed":true,"internalType":"bytes32","name":"newAdminRole","type":"bytes32"}],"name":"RoleAdminChanged","type":"event"},{"anonymous":false,"inputs":[{"indexed":true,"internalType":"bytes32","name":"role","type":"bytes32"},{"indexed":true,"internalType":"address","name":"account","type":"address"},{"indexed":true,"internalType":"address","name":"sender","type":"address"}],"name":"RoleGranted","type":"event"},{"anonymous":false,"inputs":[{"indexed":true,"internalType":"bytes32","name":"role","type":"bytes32"},{"indexed":true,"internalType":"address","name":"account","type":"address"},{"indexed":true,"internalType":"address","name":"sender","type":"address"}],"name":"RoleRevoked","type":"event"},{"anonymous":false,"inputs":[{"indexed":true,"internalType":"address","name":"user","type":"address"},{"indexed":false,"internalType":"uint256","name":"penaltyAmount","type":"uint256"}],"name":"SkipPenaltyPaid","type":"event"},{"inputs":[],"name":"DEFAULT_ADMIN","outputs":[{"internalType":"bytes32","name":"","type":"bytes32"}],"stateMutability":"view","type":"function"},{"inputs":[],"name":"DEFAULT_ADMIN_ROLE","outputs":[{"internalType":"bytes32","name":"","type":"bytes32"}],"stateMutability":"view","type":"function"},{"inputs":[],"name":"badgeContract","outputs":[{"internalType":"address","name":"","type":"address"}],"stateMutability":"view","type":"function"},{"inputs":[],"name":"checkIn","outputs":[],"stateMutability":"nonpayable","type":"function"},{"inputs":[{"internalType":"address","name":"","type":"address"}],"name":"commitments","outputs":[{"internalType":"uint256","name":"totalAmount","type":"uint256"},{"internalType":"uint256","name":"dailyAmount","type":"uint256"},{"internalType":"uint256","name":"durationDays","type":"uint256"},{"internalType":"uint256","name":"startTimestamp","type":"uint256"},{"internalType":"uint256","name":"lastCheckin","type":"uint256"},{"internalType":"uint256","name":"completedDays","type":"uint256"},{"internalType":"bool","name":"active","type":"bool"}],"stateMutability":"view","type":"function"},{"inputs":[],"name":"earlyPenaltyPercent","outputs":[{"internalType":"uint256","name":"","type":"uint256"}],"stateMutability":"view","type":"function"},{"inputs":[],"name":"earlyWithdraw","outputs":[],"stateMutability":"nonpayable","type":"function"},{"inputs":[{"internalType":"address","name":"user","type":"address"}],"name":"getCommitment","outputs":[{"components":[{"internalType":"uint256","name":"totalAmount","type":"uint256"},{"internalType":"uint256","name":"dailyAmount","type":"uint256"},{"internalType":"uint256","name":"durationDays","type":"uint256"},{"internalType":"uint256","name":"startTimestamp","type":"uint256"},{"internalType":"uint256","name":"lastCheckin","type":"uint256"},{"internalType":"uint256","name":"completedDays","type":"uint256"},{"internalType":"bool","name":"active","type":"bool"}],"internalType":"struct CommitSaving.Commitment","name":"","type":"tuple"}],"stateMutability":"view","type":"function"},{"inputs":[{"internalType":"bytes32","name":"role","type":"bytes32"}],"name":"getRoleAdmin","outputs":[{"internalType":"bytes32","name":"","type":"bytes32"}],"stateMutability":"view","type":"function"},{"inputs":[{"internalType":"bytes32","name":"role","type":"bytes32"},{"internalType":"address","name":"account","type":"address"}],"name":"grantRole","outputs":[],"stateMutability":"nonpayable","type":"function"},{"inputs":[{"internalType":"bytes32","name":"role","type":"bytes32"},{"internalType":"address","name":"account","type":"address"}],"name":"hasRole","outputs":[{"internalType":"bool","name":"","type":"bool"}],"stateMutability":"view","type":"function"},{"inputs":[],"name":"maxInterval","outputs":[{"internalType":"uint256","name":"","type":"uint256"}],"stateMutability":"view","type":"function"},{"inputs":[],"name":"minInterval","outputs":[{"internalType":"uint256","name":"","type":"uint256"}],"stateMutability":"view","type":"function"},{"inputs":[],"name":"paySkipPenalty","outputs":[],"stateMutability":"nonpayable","type":"function"},{"inputs":[{"internalType":"bytes32","name":"role","type":"bytes32"},{"internalType":"address","name":"callerConfirmation","type":"address"}],"name":"renounceRole","outputs":[],"stateMutability":"nonpayable","type":"function"},{"inputs":[{"internalType":"bytes32","name":"role","type":"bytes32"},{"internalType":"address","name":"account","type":"address"}],"name":"revokeRole","outputs":[],"stateMutability":"nonpayable","type":"function"},{"inputs":[{"internalType":"address","name":"_badge","type":"address"}],"name":"setBadgeContract","outputs":[],"stateMutability":"nonpayable","type":"function"},{"inputs":[{"internalType":"uint256","name":"_skipPercent","type":"uint256"},{"internalType":"uint256","name":"_earlyPercent","type":"uint256"}],"name":"setPenaltyPercents","outputs":[],"stateMutability":"nonpayable","type":"function"},{"inputs":[{"internalType":"uint256","name":"_minIntervalSec","type":"uint256"},{"internalType":"uint256","name":"_maxIntervalSec","type":"uint256"}],"name":"setTimeWindows","outputs":[],"stateMutability":"nonpayable","type":"function"},{"inputs":[],"name":"skipPenaltyPercent","outputs":[{"internalType":"uint256","name":"","type":"uint256"}],"stateMutability":"view","type":"function"},{"inputs":[{"internalType":"uint256","name":"dailyAmount","type":"uint256"},{"internalType":"uint256","name":"durationDays","type":"uint256"}],"name":"startCommit","outputs":[],"stateMutability":"nonpayable","type":"function"},{"inputs":[{"internalType":"bytes4","name":"interfaceId","type":"bytes4"}],"name":"supportsInterface","outputs":[{"internalType":"bool","name":"","type":"bool"}],"stateMutability":"view","type":"function"},{"inputs":[],"name":"treasury","outputs":[{"internalType":"address","name":"","type":"address"}],"stateMutability":"view","type":"function"},{"inputs":[],"name":"usdt","outputs":[{"internalType":"contract IERC20","name":"","type":"address"}],"stateMutability":"view","type":"function"}],"evm":{"bytecode":{"linkReferences":{},"object":"60806040526005600355600a60045561a8c06005556202a3006006553480156200002857600080fd5b5060405162001486380380620014868339810160408190526200004b91620001f9565b6001600160a01b038316620000965760405162461bcd60e51b815260206004820152600c60248201526b1a5b9d985b1a59081d5cd91d60a21b60448201526064015b60405180910390fd5b6001600160a01b038216620000e15760405162461bcd60e51b815260206004820152601060248201526f696e76616c696420747265617375727960801b60448201526064016200008d565b600180546001600160a01b038086166001600160a01b03199283161790925560028054928516929091169190911790556004819055620001236000336200012d565b505050506200023a565b6000828152602081815260408083206001600160a01b038516845290915281205460ff16620001d2576000838152602081815260408083206001600160a01b03861684529091529020805460ff19166001179055620001893390565b6001600160a01b0316826001600160a01b0316847f2f8788117e7eff1d82e926ec794901d17c78024a50270940304540a733656f0d60405160405180910390a4506001620001d6565b5060005b92915050565b80516001600160a01b0381168114620001f457600080fd5b919050565b6000806000606084860312156200020f57600080fd5b6200021a84620001dc565b92506200022a60208501620001dc565b9150604084015190509250925092565b61123c806200024a6000396000f3fe608060405234801561001057600080fd5b50600436106101585760003560e01c806367025b3c116100c3578063cae774b31161007c578063cae774b3146102b8578063d547741f146102c1578063e160ab19146102d4578063e8fcf723146102dd578063f0942d6b14610362578063fa1026dd1461036a57600080fd5b806367025b3c146102645780637e088c26146102775780638d6d49251461028a57806391d148541461029d5780639cdeba95146102b0578063a217fddf146102b057600080fd5b806336568abe1161011557806336568abe146102065780633a00f741146102195780633fb19a531461022c57806347d212da1461023557806357f2aa4b1461024857806361d027b31461025157600080fd5b806301ffc9a71461015d57806315d74bb314610185578063183ff0851461018f578063248a9ca3146101975780632f2ff15d146101c85780632f48ab7d146101db575b600080fd5b61017061016b366004611098565b6103d5565b60405190151581526020015b60405180910390f35b61018d61040c565b005b61018d610558565b6101ba6101a53660046110c9565b60009081526020819052604090206001015490565b60405190815260200161017c565b61018d6101d63660046110fe565b6106dd565b6001546101ee906001600160a01b031681565b6040516001600160a01b03909116815260200161017c565b61018d6102143660046110fe565b610708565b61018d61022736600461112a565b610740565b6101ba60055481565b61018d61024336600461114c565b610757565b6101ba60045481565b6002546101ee906001600160a01b031681565b61018d61027236600461112a565b6107b9565b61018d61028536600461112a565b6109cb565b6007546101ee906001600160a01b031681565b6101706102ab3660046110fe565b610a2f565b6101ba600081565b6101ba60065481565b61018d6102cf3660046110fe565b610a58565b6101ba60035481565b61032b6102eb36600461114c565b6008602052600090815260409020805460018201546002830154600384015460048501546005860154600690960154949593949293919290919060ff1687565b604080519788526020880196909652948601939093526060850191909152608084015260a0830152151560c082015260e00161017c565b61018d610a7d565b61037d61037836600461114c565b610bff565b60405161017c9190600060e082019050825182526020830151602083015260408301516040830152606083015160608301526080830151608083015260a083015160a083015260c0830151151560c083015292915050565b60006001600160e01b03198216637965db0b60e01b148061040657506301ffc9a760e01b6001600160e01b03198316145b92915050565b336000908152600860205260409020600681015460ff166104485760405162461bcd60e51b815260040161043f90611167565b60405180910390fd5b60008160050154826001015461045e91906111a7565b90506000818360000154111561047e57825461047b9083906111be565b90505b600060646004548361049091906111a7565b61049a91906111d1565b905060006104a882846111be565b60068601805460ff191690556000808755600187018190556002870181905560038701819055600487018190556005870155905081156104ff576002546001546104ff916001600160a01b03918216911684610cb2565b801561051c5760015461051c906001600160a01b03163383610cb2565b60405181815233907fee36dd0255398c602fbe14e8a2d270c38f5a10614783d14e42f88f478db822c69060200160405180910390a25050505050565b336000908152600860205260409020600681015460ff1661058b5760405162461bcd60e51b815260040161043f90611167565b600554816004015461059d91906111f3565b4210156105e55760405162461bcd60e51b81526020600482015260166024820152753a37b79032b0b9363c903337b91031b432b1b596b4b760511b604482015260640161043f565b60065481600401546105f791906111f3565b4211156106625760405162461bcd60e51b815260206004820152603360248201527f6d69737365642077696e646f77202d20706c656173652070617920736b69702060448201527270656e616c747920746f20636f6e74696e756560681b606482015260840161043f565b428160040181905550600181600501600082825461068091906111f3565b909155505060028101546005820154106106a05761069d33610d11565b50565b600581015460405190815233907fdddb6e14f7f2101397a6526aab95e964de7f1f44ed06aa47a1c9a0e6b99244569060200160405180910390a250565b6000828152602081905260409020600101546106f881610eaa565b6107028383610eb4565b50505050565b6001600160a01b03811633146107315760405163334bd91960e11b815260040160405180910390fd5b61073b8282610f46565b505050565b600061074b81610eaa565b50600391909155600455565b600061076281610eaa565b600780546001600160a01b0319166001600160a01b03841690811790915560405190815233907f76e2f00cb6847623f2b07403c24ef7407538ec235fb877b4cc3757e7f9c06ab69060200160405180910390a25050565b600082116107fb5760405162461bcd60e51b815260206004820152600f60248201526e06461696c79416d6f756e74203e203608c1b604482015260640161043f565b6000811161083e5760405162461bcd60e51b815260206004820152601060248201526f06475726174696f6e44617973203e20360841b604482015260640161043f565b336000908152600860205260409020600681015460ff16156108995760405162461bcd60e51b815260206004820152601460248201527361637469766520636f6d6d69742065786973747360601b604482015260640161043f565b60006108a583856111a7565b9050836108b284836111d1565b146108ea5760405162461bcd60e51b81526020600482015260086024820152676f766572666c6f7760c01b604482015260640161043f565b600154610902906001600160a01b0316333084610fb1565b6040805160e081018252828152602080820187815282840187815242606080860182815260808701928352600060a08801818152600160c08a018181523380855260088b52938c90209a518b559751908a01559451600289015590516003880155915160048701559151600586015591516006909401805460ff19169415159490941790935583518581529182018890529281018690527f7c03dc81f71472a2597a8ef8b4153872402d03042ae8c322819422e7a7b8246f91015b60405180910390a250505050565b60006109d681610eaa565b6000831180156109e557508282115b610a235760405162461bcd60e51b815260206004820152600f60248201526e696e76616c69642077696e646f777360881b604482015260640161043f565b50600591909155600655565b6000918252602082815260408084206001600160a01b0393909316845291905290205460ff1690565b600082815260208190526040902060010154610a7381610eaa565b6107028383610f46565b336000908152600860205260409020600681015460ff16610ab05760405162461bcd60e51b815260040161043f90611167565b6006548160040154610ac291906111f3565b4211610b025760405162461bcd60e51b815260206004820152600f60248201526e1b9bdd081bdd995c991d59481e595d608a1b604482015260640161043f565b600081600501548260010154610b1891906111a7565b905060008183600001541115610b38578254610b359083906111be565b90505b60008111610b7c5760405162461bcd60e51b81526020600482015260116024820152706e6f7468696e672072656d61696e696e6760781b604482015260640161043f565b6000606460035483610b8e91906111a7565b610b9891906111d1565b600254600154919250610bb8916001600160a01b03908116911683610cb2565b8354610bc59082906111be565b845542600485015560405181815233907f34e652f10e1085a5c17c12b1979f43489f61641eea462fe742b036e641e48f18906020016109bd565b610c416040518060e001604052806000815260200160008152602001600081526020016000815260200160008152602001600081526020016000151581525090565b506001600160a01b0316600090815260086020908152604091829020825160e081018452815481526001820154928101929092526002810154928201929092526003820154606082015260048201546080820152600582015460a082015260069091015460ff16151560c082015290565b6040516001600160a01b0383811660248301526044820183905261073b91859182169063a9059cbb906064015b604051602081830303815290604052915060e01b6020820180516001600160e01b038381831617835250505050610fea565b6001600160a01b0381166000908152600860205260409020600681015460ff16610d6a5760405162461bcd60e51b815260206004820152600a6024820152696e6f742061637469766560b01b604482015260640161043f565b600081600501548260010154610d8091906111a7565b905060008183600001541115610da0578254610d9d9083906111be565b90505b60068301805460ff1916905560008084556001840181905560028401819055600384018190556004840181905560058401558015610def57600154610def906001600160a01b03168583610cb2565b6007546001600160a01b031615610e6f5760075460408051630d6575f960e31b81526001600160a01b038781166004830152602482019290925260006044820152911690636b2bafc890606401600060405180830381600087803b158015610e5657600080fd5b505af1158015610e6a573d6000803e3d6000fd5b505050505b836001600160a01b03167f66b6851664a82efe6b871e434faba2b11421d2dad65eb71a344ae76cca8a2b86826040516109bd91815260200190565b61069d813361105b565b6000610ec08383610a2f565b610f3e576000838152602081815260408083206001600160a01b03861684529091529020805460ff19166001179055610ef63390565b6001600160a01b0316826001600160a01b0316847f2f8788117e7eff1d82e926ec794901d17c78024a50270940304540a733656f0d60405160405180910390a4506001610406565b506000610406565b6000610f528383610a2f565b15610f3e576000838152602081815260408083206001600160a01b0386168085529252808320805460ff1916905551339286917ff6391f5c32d9c69d2a47ea670b442974b53935d1edc7fd64eb21e047a839171b9190a4506001610406565b6040516001600160a01b0384811660248301528381166044830152606482018390526107029186918216906323b872dd90608401610cdf565b600080602060008451602086016000885af18061100d576040513d6000823e3d81fd5b50506000513d91508115611025578060011415611032565b6001600160a01b0384163b155b1561070257604051635274afe760e01b81526001600160a01b038516600482015260240161043f565b6110658282610a2f565b6110945760405163e2517d3f60e01b81526001600160a01b03821660048201526024810183905260440161043f565b5050565b6000602082840312156110aa57600080fd5b81356001600160e01b0319811681146110c257600080fd5b9392505050565b6000602082840312156110db57600080fd5b5035919050565b80356001600160a01b03811681146110f957600080fd5b919050565b6000806040838503121561111157600080fd5b82359150611121602084016110e2565b90509250929050565b6000806040838503121561113d57600080fd5b50508035926020909101359150565b60006020828403121561115e57600080fd5b6110c2826110e2565b60208082526010908201526f1b9bc81858dd1a5d994818dbdb5b5a5d60821b604082015260600190565b634e487b7160e01b600052601160045260246000fd5b808202811582820484141761040657610406611191565b8181038181111561040657610406611191565b6000826111ee57634e487b7160e01b600052601260045260246000fd5b500490565b808201808211156104065761040661119156fea2646970667358221220300386e4579aba4df23ebd8e501094d7f62264993e01337889ad457d2c2a9b9964736f6c63430008140033","opcodes":"PUSH1 0x80 PUSH1 0x40 MSTORE PUSH1 0x5 PUSH1 0x3 SSTORE PUSH1 0xA PUSH1 0x4 SSTORE PUSH2 0xA8C0 PUSH1 0x5 SSTORE PUSH3 0x2A300 PUSH1 0x6 SSTORE CALLVALUE DUP1 ISZERO PUSH3 0x28 JUMPI PUSH1 0x0 DUP1 REVERT JUMPDEST POP PUSH1 0x40 MLOAD PUSH3 0x1486 CODESIZE SUB DUP1 PUSH3 0x1486 DUP4 CODECOPY DUP2 ADD PUSH1 0x40 DUP2 SWAP1 MSTORE PUSH3 0x4B SWAP2 PUSH3 0x1F9 JUMP JUMPDEST PUSH1 0x1 PUSH1 0x1 PUSH1 0xA0 SHL SUB DUP4 AND PUSH3 0x96 JUMPI PUSH1 0x40 MLOAD PUSH3 0x461BCD PUSH1 0xE5 SHL DUP2 MSTORE PUSH1 0x20 PUSH1 0x4 DUP3 ADD MSTORE PUSH1 0xC PUSH1 0x24 DUP3 ADD MSTORE PUSH12 0x1A5B9D985B1A59081D5CD91D PUSH1 0xA2 SHL PUSH1 0x44 DUP3 ADD MSTORE PUSH1 0x64 ADD JUMPDEST PUSH1 0x40 MLOAD DUP1 SWAP2 SUB SWAP1 REVERT JUMPDEST PUSH1 0x1 PUSH1 0x1 PUSH1 0xA0 SHL SUB DUP3 AND PUSH3 0xE1 JUMPI PUSH1 0x40 MLOAD PUSH3 0x461BCD PUSH1 0xE5 SHL DUP2 MSTORE PUSH1 0x20 PUSH1 0x4 DUP3 ADD MSTORE PUSH1 0x10 PUSH1 0x24 DUP3 ADD MSTORE PUSH16 0x696E76616C6964207472656173757279 PUSH1 0x80 SHL PUSH1 0x44 DUP3 ADD MSTORE PUSH1 0x64 ADD PUSH3 0x8D JUMP JUMPDEST PUSH1 0x1 DUP1 SLOAD PUSH1 0x1 PUSH1 0x1 PUSH1 0xA0 SHL SUB DUP1 DUP7 AND PUSH1 0x1 PUSH1 0x1 PUSH1 0xA0 SHL SUB NOT SWAP3 DUP4 AND OR SWAP1 SWAP3 SSTORE PUSH1 0x2 DUP1 SLOAD SWAP3 DUP6 AND SWAP3 SWAP1 SWAP2 AND SWAP2 SWAP1 SWAP2 OR SWAP1 SSTORE PUSH1 0x4 DUP2 SWAP1 SSTORE PUSH3 0x123 PUSH1 0x0 CALLER PUSH3 0x12D JUMP JUMPDEST POP POP POP POP PUSH3 0x23A JUMP JUMPDEST PUSH1 0x0 DUP3 DUP2 MSTORE PUSH1 0x20 DUP2 DUP2 MSTORE PUSH1 0x40 DUP1 DUP4 KECCAK256 PUSH1 0x1 PUSH1 0x1 PUSH1 0xA0 SHL SUB DUP6 AND DUP5 MSTORE SWAP1 SWAP2 MSTORE DUP2 KECCAK256 SLOAD PUSH1 0xFF AND PUSH3 0x1D2 JUMPI PUSH1 0x0 DUP4 DUP2 MSTORE PUSH1 0x20 DUP2 DUP2 MSTORE PUSH1 0x40 DUP1 DUP4 KECCAK256 PUSH1 0x1 PUSH1 0x1 PUSH1 0xA0 SHL SUB DUP7 AND DUP5 MSTORE SWAP1 SWAP2 MSTORE SWAP1 KECCAK256 DUP1 SLOAD PUSH1 0xFF NOT AND PUSH1 0x1 OR SWAP1 SSTORE PUSH3 0x189 CALLER SWAP1 JUMP JUMPDEST PUSH1 0x1 PUSH1 0x1 PUSH1 0xA0 SHL SUB AND DUP3 PUSH1 0x1 PUSH1 0x1 PUSH1 0xA0 SHL SUB AND DUP5 PUSH32 0x2F8788117E7EFF1D82E926EC794901D17C78024A50270940304540A733656F0D PUSH1 0x40 MLOAD PUSH1 0x40 MLOAD DUP1 SWAP2 SUB SWAP1 LOG4 POP PUSH1 0x1 PUSH3 0x1D6 JUMP JUMPDEST POP PUSH1 0x0 JUMPDEST SWAP3 SWAP2 POP POP JUMP JUMPDEST DUP1 MLOAD PUSH1 0x1 PUSH1 0x1 PUSH1 0xA0 SHL SUB DUP2 AND DUP2 EQ PUSH3 0x1F4 JUMPI PUSH1 0x0 DUP1 REVERT JUMPDEST SWAP2 SWAP1 POP JUMP JUMPDEST PUSH1 0x0 DUP1 PUSH1 0x0 PUSH1 0x60 DUP5 DUP7 SUB SLT ISZERO PUSH3 0x20F JUMPI PUSH1 0x0 DUP1 REVERT JUMPDEST PUSH3 0x21A DUP5 PUSH3 0x1DC JUMP JUMPDEST SWAP3 POP PUSH3 0x22A PUSH1 0x20 DUP6 ADD PUSH3 0x1DC JUMP JUMPDEST SWAP2 POP PUSH1 0x40 DUP5 ADD MLOAD SWAP1 POP SWAP3 POP SWAP3 POP SWAP3 JUMP JUMPDEST PUSH2 0x123C DUP1 PUSH3 0x24A PUSH1 0x0 CODECOPY PUSH1 0x0 RETURN INVALID PUSH1 0x80 PUSH1 0x40 MSTORE CALLVALUE DUP1 ISZERO PUSH2 0x10 JUMPI PUSH1 0x0 DUP1 REVERT JUMPDEST POP PUSH1 0x4 CALLDATASIZE LT PUSH2 0x158 JUMPI PUSH1 0x0 CALLDATALOAD PUSH1 0xE0 SHR DUP1 PUSH4 0x67025B3C GT PUSH2 0xC3 JUMPI DUP1 PUSH4 0xCAE774B3 GT PUSH2 0x7C JUMPI DUP1 PUSH4 0xCAE774B3 EQ PUSH2 0x2B8 JUMPI DUP1 PUSH4 0xD547741F EQ PUSH2 0x2C1 JUMPI DUP1 PUSH4 0xE160AB19 EQ PUSH2 0x2D4 JUMPI DUP1 PUSH4 0xE8FCF723 EQ PUSH2 0x2DD JUMPI DUP1 PUSH4 0xF0942D6B EQ PUSH2 0x362 JUMPI DUP1 PUSH4 0xFA1026DD EQ PUSH2 0x36A JUMPI PUSH1 0x0 DUP1 REVERT JUMPDEST DUP1 PUSH4 0x67025B3C EQ PUSH2 0x264 JUMPI DUP1 PUSH4 0x7E088C26 EQ PUSH2 0x277 JUMPI DUP1 PUSH4 0x8D6D4925 EQ PUSH2 0x28A JUMPI DUP1 PUSH4 0x91D14854 EQ PUSH2 0x29D JUMPI DUP1 PUSH4 0x9CDEBA95 EQ PUSH2 0x2B0 JUMPI DUP1 PUSH4 0xA217FDDF EQ PUSH2 0x2B0 JUMPI PUSH1 0x0 DUP1 REVERT JUMPDEST DUP1 PUSH4 0x36568ABE GT PUSH2 0x115 JUMPI DUP1 PUSH4 0x36568ABE EQ PUSH2 0x206 JUMPI DUP1 PUSH4 0x3A00F741 EQ PUSH2 0x219 JUMPI DUP1 PUSH4 0x3FB19A53 EQ PUSH2 0x22C JUMPI DUP1 PUSH4 0x47D212DA EQ PUSH2 0x235 JUMPI DUP1 PUSH4 0x57F2AA4B EQ PUSH2 0x248 JUMPI DUP1 PUSH4 0x61D027B3 EQ PUSH2 0x251 JUMPI PUSH1 0x0 DUP1 REVERT JUMPDEST DUP1 PUSH4 0x1FFC9A7 EQ PUSH2 0x15D JUMPI DUP1 PUSH4 0x15D74BB3 EQ PUSH2 0x185 JUMPI DUP1 PUSH4 0x183FF085 EQ PUSH2 0x18F JUMPI DUP1 PUSH4 0x248A9CA3 EQ PUSH2 0x197 JUMPI DUP1 PUSH4 0x2F2FF15D EQ PUSH2 0x1C8 JUMPI DUP1 PUSH4 0x2F48AB7D EQ PUSH2 0x1DB JUMPI JUMPDEST PUSH1 0x0 DUP1 REVERT JUMPDEST PUSH2 0x170 PUSH2 0x16B CALLDATASIZE PUSH1 0x4 PUSH2 0x1098 JUMP JUMPDEST PUSH2 0x3D5 JUMP JUMPDEST PUSH1 0x40 MLOAD SWAP1 ISZERO ISZERO DUP2 MSTORE PUSH1 0x20 ADD JUMPDEST PUSH1 0x40 MLOAD DUP1 SWAP2 SUB SWAP1 RETURN JUMPDEST PUSH2 0x18D PUSH2 0x40C JUMP JUMPDEST STOP JUMPDEST PUSH2 0x18D PUSH2 0x558 JUMP JUMPDEST PUSH2 0x1BA PUSH2 0x1A5 CALLDATASIZE PUSH1 0x4 PUSH2 0x10C9 JUMP JUMPDEST PUSH1 0x0 SWAP1 DUP2 MSTORE PUSH1 0x20 DUP2 SWAP1 MSTORE PUSH1 0x40 SWAP1 KECCAK256 PUSH1 0x1 ADD SLOAD SWAP1 JUMP JUMPDEST PUSH1 0x40 MLOAD SWAP1 DUP2 MSTORE PUSH1 0x20 ADD PUSH2 0x17C JUMP JUMPDEST PUSH2 0x18D PUSH2 0x1D6 CALLDATASIZE PUSH1 0x4 PUSH2 0x10FE JUMP JUMPDEST PUSH2 0x6DD JUMP JUMPDEST PUSH1 0x1 SLOAD PUSH2 0x1EE SWAP1 PUSH1 0x1 PUSH1 0x1 PUSH1 0xA0 SHL SUB AND DUP2 JUMP JUMPDEST PUSH1 0x40 MLOAD PUSH1 0x1 PUSH1 0x1 PUSH1 0xA0 SHL SUB SWAP1 SWAP2 AND DUP2 MSTORE PUSH1 0x20 ADD PUSH2 0x17C JUMP JUMPDEST PUSH2 0x18D PUSH2 0x214 CALLDATASIZE PUSH1 0x4 PUSH2 0x10FE JUMP JUMPDEST PUSH2 0x708 JUMP JUMPDEST PUSH2 0x18D PUSH2 0x227 CALLDATASIZE PUSH1 0x4 PUSH2 0x112A JUMP JUMPDEST PUSH2 0x740 JUMP JUMPDEST PUSH2 0x1BA PUSH1 0x5 SLOAD DUP2 JUMP JUMPDEST PUSH2 0x18D PUSH2 0x243 CALLDATASIZE PUSH1 0x4 PUSH2 0x114C JUMP JUMPDEST PUSH2 0x757 JUMP JUMPDEST PUSH2 0x1BA PUSH1 0x4 SLOAD DUP2 JUMP JUMPDEST PUSH1 0x2 SLOAD PUSH2 0x1EE SWAP1 PUSH1 0x1 PUSH1 0x1 PUSH1 0xA0 SHL SUB AND DUP2 JUMP JUMPDEST PUSH2 0x18D PUSH2 0x272 CALLDATASIZE PUSH1 0x4 PUSH2 0x112A JUMP JUMPDEST PUSH2 0x7B9 JUMP JUMPDEST PUSH2 0x18D PUSH2 0x285 CALLDATASIZE PUSH1 0x4 PUSH2 0x112A JUMP JUMPDEST PUSH2 0x9CB JUMP JUMPDEST PUSH1 0x7 SLOAD PUSH2 0x1EE SWAP1 PUSH1 0x1 PUSH1 0x1 PUSH1 0xA0 SHL SUB AND DUP2 JUMP JUMPDEST PUSH2 0x170 PUSH2 0x2AB CALLDATASIZE PUSH1 0x4 PUSH2 0x10FE JUMP JUMPDEST PUSH2 0xA2F JUMP JUMPDEST PUSH2 0x1BA PUSH1 0x0 DUP2 JUMP JUMPDEST PUSH2 0x1BA PUSH1 0x6 SLOAD DUP2 JUMP JUMPDEST PUSH2 0x18D PUSH2 0x2CF CALLDATASIZE PUSH1 0x4 PUSH2 0x10FE JUMP JUMPDEST PUSH2 0xA58 JUMP JUMPDEST PUSH2 0x1BA PUSH1 0x3 SLOAD DUP2 JUMP JUMPDEST PUSH2 0x32B PUSH2 0x2EB CALLDATASIZE PUSH1 0x4 PUSH2 0x114C JUMP JUMPDEST PUSH1 0x8 PUSH1 0x20 MSTORE PUSH1 0x0 SWAP1 DUP2 MSTORE PUSH1 0x40 SWAP1 KECCAK256 DUP1 SLOAD PUSH1 0x1 DUP3 ADD SLOAD PUSH1 0x2 DUP4 ADD SLOAD PUSH1 0x3 DUP5 ADD SLOAD PUSH1 0x4 DUP6 ADD SLOAD PUSH1 0x5 DUP7 ADD SLOAD PUSH1 0x6 SWAP1 SWAP7 ADD SLOAD SWAP5 SWAP6 SWAP4 SWAP5 SWAP3 SWAP4 SWAP2 SWAP3 SWAP1 SWAP2 SWAP1 PUSH1 0xFF AND DUP8 JUMP JUMPDEST PUSH1 0x40 DUP1 MLOAD SWAP8 DUP9 MSTORE PUSH1 0x20 DUP9 ADD SWAP7 SWAP1 SWAP7 MSTORE SWAP5 DUP7 ADD SWAP4 SWAP1 SWAP4 MSTORE PUSH1 0x60 DUP6 ADD SWAP2 SWAP1 SWAP2 MSTORE PUSH1 0x80 DUP5 ADD MSTORE PUSH1 0xA0 DUP4 ADD MSTORE ISZERO ISZERO PUSH1 0xC0 DUP3 ADD MSTORE PUSH1 0xE0 ADD PUSH2 0x17C JUMP JUMPDEST PUSH2 0x18D PUSH2 0xA7D JUMP JUMPDEST PUSH2 0x37D PUSH2 0x378 CALLDATASIZE PUSH1 0x4 PUSH2 0x114C JUMP JUMPDEST PUSH2 0xBFF JUMP JUMPDEST PUSH1 0x40 MLOAD PUSH2 0x17C SWAP2 SWAP1 PUSH1 0x0 PUSH1 0xE0 DUP3 ADD SWAP1 POP DUP3 MLOAD DUP3 MSTORE PUSH1 0x20 DUP4 ADD MLOAD PUSH1 0x20 DUP4 ADD MSTORE PUSH1 0x40 DUP4 ADD MLOAD PUSH1 0x40 DUP4 ADD MSTORE PUSH1 0x60 DUP4 ADD MLOAD PUSH1 0x60 DUP4 ADD MSTORE PUSH1 0x80 DUP4 ADD MLOAD PUSH1 0x80 DUP4 ADD MSTORE PUSH1 0xA0 DUP4 ADD MLOAD PUSH1 0xA0 DUP4 ADD MSTORE PUSH1 0xC0 DUP4 ADD MLOAD ISZERO ISZERO PUSH1 0xC0 DUP4 ADD MSTORE SWAP3 SWAP2 POP POP JUMP JUMPDEST PUSH1 0x0 PUSH1 0x1 PUSH1 0x1 PUSH1 0xE0 SHL SUB NOT DUP3 AND PUSH4 0x7965DB0B PUSH1 0xE0 SHL EQ DUP1 PUSH2 0x406 JUMPI POP PUSH4 0x1FFC9A7 PUSH1 0xE0 SHL PUSH1 0x1 PUSH1 0x1 PUSH1 0xE0 SHL SUB NOT DUP4 AND EQ JUMPDEST SWAP3 SWAP2 POP POP JUMP JUMPDEST CALLER PUSH1 0x0 SWAP1 DUP2 MSTORE PUSH1 0x8 PUSH1 0x20 MSTORE PUSH1 0x40 SWAP1 KECCAK256 PUSH1 0x6 DUP2 ADD SLOAD PUSH1 0xFF AND PUSH2 0x448 JUMPI PUSH1 0x40 MLOAD PUSH3 0x461BCD PUSH1 0xE5 SHL DUP2 MSTORE PUSH1 0x4 ADD PUSH2 0x43F SWAP1 PUSH2 0x1167 JUMP JUMPDEST PUSH1 0x40 MLOAD DUP1 SWAP2 SUB SWAP1 REVERT JUMPDEST PUSH1 0x0 DUP2 PUSH1 0x5 ADD SLOAD DUP3 PUSH1 0x1 ADD SLOAD PUSH2 0x45E SWAP2 SWAP1 PUSH2 0x11A7 JUMP JUMPDEST SWAP1 POP PUSH1 0x0 DUP2 DUP4 PUSH1 0x0 ADD SLOAD GT ISZERO PUSH2 0x47E JUMPI DUP3 SLOAD PUSH2 0x47B SWAP1 DUP4 SWAP1 PUSH2 0x11BE JUMP JUMPDEST SWAP1 POP JUMPDEST PUSH1 0x0 PUSH1 0x64 PUSH1 0x4 SLOAD DUP4 PUSH2 0x490 SWAP2 SWAP1 PUSH2 0x11A7 JUMP JUMPDEST PUSH2 0x49A SWAP2 SWAP1 PUSH2 0x11D1 JUMP JUMPDEST SWAP1 POP PUSH1 0x0 PUSH2 0x4A8 DUP3 DUP5 PUSH2 0x11BE JUMP JUMPDEST PUSH1 0x6 DUP7 ADD DUP1 SLOAD PUSH1 0xFF NOT AND SWAP1 SSTORE PUSH1 0x0 DUP1 DUP8 SSTORE PUSH1 0x1 DUP8 ADD DUP2 SWAP1 SSTORE PUSH1 0x2 DUP8 ADD DUP2 SWAP1 SSTORE PUSH1 0x3 DUP8 ADD DUP2 SWAP1 SSTORE PUSH1 0x4 DUP8 ADD DUP2 SWAP1 SSTORE PUSH1 0x5 DUP8 ADD SSTORE SWAP1 POP DUP2 ISZERO PUSH2 0x4FF JUMPI PUSH1 0x2 SLOAD PUSH1 0x1 SLOAD PUSH2 0x4FF SWAP2 PUSH1 0x1 PUSH1 0x1 PUSH1 0xA0 SHL SUB SWAP2 DUP3 AND SWAP2 AND DUP5 PUSH2 0xCB2 JUMP JUMPDEST DUP1 ISZERO PUSH2 0x51C JUMPI PUSH1 0x1 SLOAD PUSH2 0x51C SWAP1 PUSH1 0x1 PUSH1 0x1 PUSH1 0xA0 SHL SUB AND CALLER DUP4 PUSH2 0xCB2 JUMP JUMPDEST PUSH1 0x40 MLOAD DUP2 DUP2 MSTORE CALLER SWAP1 PUSH32 0xEE36DD0255398C602FBE14E8A2D270C38F5A10614783D14E42F88F478DB822C6 SWAP1 PUSH1 0x20 ADD PUSH1 0x40 MLOAD DUP1 SWAP2 SUB SWAP1 LOG2 POP POP POP POP POP JUMP JUMPDEST CALLER PUSH1 0x0 SWAP1 DUP2 MSTORE PUSH1 0x8 PUSH1 0x20 MSTORE PUSH1 0x40 SWAP1 KECCAK256 PUSH1 0x6 DUP2 ADD SLOAD PUSH1 0xFF AND PUSH2 0x58B JUMPI PUSH1 0x40 MLOAD PUSH3 0x461BCD PUSH1 0xE5 SHL DUP2 MSTORE PUSH1 0x4 ADD PUSH2 0x43F SWAP1 PUSH2 0x1167 JUMP JUMPDEST PUSH1 0x5 SLOAD DUP2 PUSH1 0x4 ADD SLOAD PUSH2 0x59D SWAP2 SWAP1 PUSH2 0x11F3 JUMP JUMPDEST TIMESTAMP LT ISZERO PUSH2 0x5E5 JUMPI PUSH1 0x40 MLOAD PUSH3 0x461BCD PUSH1 0xE5 SHL DUP2 MSTORE PUSH1 0x20 PUSH1 0x4 DUP3 ADD MSTORE PUSH1 0x16 PUSH1 0x24 DUP3 ADD MSTORE PUSH22 0x3A37B79032B0B9363C903337B91031B432B1B596B4B7 PUSH1 0x51 SHL PUSH1 0x44 DUP3 ADD MSTORE PUSH1 0x64 ADD PUSH2 0x43F JUMP JUMPDEST PUSH1 0x6 SLOAD DUP2 PUSH1 0x4 ADD SLOAD PUSH2 0x5F7 SWAP2 SWAP1 PUSH2 0x11F3 JUMP JUMPDEST TIMESTAMP GT ISZERO PUSH2 0x662 JUMPI PUSH1 0x40 MLOAD PUSH3 0x461BCD PUSH1 0xE5 SHL DUP2 MSTORE PUSH1 0x20 PUSH1 0x4 DUP3 ADD MSTORE PUSH1 0x33 PUSH1 0x24 DUP3 ADD MSTORE PUSH32 0x6D69737365642077696E646F77202D20706C656173652070617920736B697020 PUSH1 0x44 DUP3 ADD MSTORE PUSH19 0x70656E616C747920746F20636F6E74696E7565 PUSH1 0x68 SHL PUSH1 0x64 DUP3 ADD MSTORE PUSH1 0x84 ADD PUSH2 0x43F JUMP JUMPDEST TIMESTAMP DUP2 PUSH1 0x4 ADD DUP2 SWAP1 SSTORE POP PUSH1 0x1 DUP2 PUSH1 0x5 ADD PUSH1 0x0 DUP3 DUP3 SLOAD PUSH2 0x680 SWAP2 SWAP1 PUSH2 0x11F3 JUMP JUMPDEST SWAP1 SWAP2 SSTORE POP POP PUSH1 0x2 DUP2 ADD SLOAD PUSH1 0x5 DUP3 ADD SLOAD LT PUSH2 0x6A0 JUMPI PUSH2 0x69D CALLER PUSH2 0xD11 JUMP JUMPDEST POP JUMP JUMPDEST PUSH1 0x5 DUP2 ADD SLOAD PUSH1 0x40 MLOAD SWAP1 DUP2 MSTORE CALLER SWAP1 PUSH32 0xDDDB6E14F7F2101397A6526AAB95E964DE7F1F44ED06AA47A1C9A0E6B9924456 SWAP1 PUSH1 0x20 ADD PUSH1 0x40 MLOAD DUP1 SWAP2 SUB SWAP1 LOG2 POP JUMP JUMPDEST PUSH1 0x0 DUP3 DUP2 MSTORE PUSH1 0x20 DUP2 SWAP1 MSTORE PUSH1 0x40 SWAP1 KECCAK256 PUSH1 0x1 ADD SLOAD PUSH2 0x6F8 DUP2 PUSH2 0xEAA JUMP JUMPDEST PUSH2 0x702 DUP4 DUP4 PUSH2 0xEB4 JUMP JUMPDEST POP POP POP POP JUMP JUMPDEST PUSH1 0x1 PUSH1 0x1 PUSH1 0xA0 SHL SUB DUP2 AND CALLER EQ PUSH2 0x731 JUMPI PUSH1 0x40 MLOAD PUSH4 0x334BD919 PUSH1 0xE1 SHL DUP2 MSTORE PUSH1 0x4 ADD PUSH1 0x40 MLOAD DUP1 SWAP2 SUB SWAP1 REVERT JUMPDEST PUSH2 0x73B DUP3 DUP3 PUSH2 0xF46 JUMP JUMPDEST POP POP POP JUMP JUMPDEST PUSH1 0x0 PUSH2 0x74B DUP2 PUSH2 0xEAA JUMP JUMPDEST POP PUSH1 0x3 SWAP2 SWAP1 SWAP2 SSTORE PUSH1 0x4 SSTORE JUMP JUMPDEST PUSH1 0x0 PUSH2 0x762 DUP2 PUSH2 0xEAA JUMP JUMPDEST PUSH1 0x7 DUP1 SLOAD PUSH1 0x1 PUSH1 0x1 PUSH1 0xA0 SHL SUB NOT AND PUSH1 0x1 PUSH1 0x1 PUSH1 0xA0 SHL SUB DUP5 AND SWAP1 DUP2 OR SWAP1 SWAP2 SSTORE PUSH1 0x40 MLOAD SWAP1 DUP2 MSTORE CALLER SWAP1 PUSH32 0x76E2F00CB6847623F2B07403C24EF7407538EC235FB877B4CC3757E7F9C06AB6 SWAP1 PUSH1 0x20 ADD PUSH1 0x40 MLOAD DUP1 SWAP2 SUB SWAP1 LOG2 POP POP JUMP JUMPDEST PUSH1 0x0 DUP3 GT PUSH2 0x7FB JUMPI PUSH1 0x40 MLOAD PUSH3 0x461BCD PUSH1 0xE5 SHL DUP2 MSTORE PUSH1 0x20 PUSH1 0x4 DUP3 ADD MSTORE PUSH1 0xF PUSH1 0x24 DUP3 ADD MSTORE PUSH15 0x6461696C79416D6F756E74203E203 PUSH1 0x8C SHL PUSH1 0x44 DUP3 ADD MSTORE PUSH1 0x64 ADD PUSH2 0x43F JUMP JUMPDEST PUSH1 0x0 DUP2 GT PUSH2 0x83E JUMPI PUSH1 0x40 MLOAD PUSH3 0x461BCD PUSH1 0xE5 SHL DUP2 MSTORE PUSH1 0x20 PUSH1 0x4 DUP3 ADD MSTORE PUSH1 0x10 PUSH1 0x24 DUP3 ADD MSTORE PUSH16 0x6475726174696F6E44617973203E203 PUSH1 0x84 SHL PUSH1 0x44 DUP3 ADD MSTORE PUSH1 0x64 ADD PUSH2 0x43F JUMP JUMPDEST CALLER PUSH1 0x0 SWAP1 DUP2 MSTORE PUSH1 0x8 PUSH1 0x20 MSTORE PUSH1 0x40 SWAP1 KECCAK256 PUSH1 0x6 DUP2 ADD SLOAD PUSH1 0xFF AND ISZERO PUSH2 0x899 JUMPI PUSH1 0x40 MLOAD PUSH3 0x461BCD PUSH1 0xE5 SHL DUP2 MSTORE PUSH1 0x20 PUSH1 0x4 DUP3 ADD MSTORE PUSH1 0x14 PUSH1 0x24 DUP3 ADD MSTORE PUSH20 0x61637469766520636F6D6D697420657869737473 PUSH1 0x60 SHL PUSH1 0x44 DUP3 ADD MSTORE PUSH1 0x64 ADD PUSH2 0x43F JUMP JUMPDEST PUSH1 0x0 PUSH2 0x8A5 DUP4 DUP6 PUSH2 0x11A7 JUMP JUMPDEST SWAP1 POP DUP4 PUSH2 0x8B2 DUP5 DUP4 PUSH2 0x11D1 JUMP JUMPDEST EQ PUSH2 0x8EA JUMPI PUSH1 0x40 MLOAD PUSH3 0x461BCD PUSH1 0xE5 SHL DUP2 MSTORE PUSH1 0x20 PUSH1 0x4 DUP3 ADD MSTORE PUSH1 0x8 PUSH1 0x24 DUP3 ADD MSTORE PUSH8 0x6F766572666C6F77 PUSH1 0xC0 SHL PUSH1 0x44 DUP3 ADD MSTORE PUSH1 0x64 ADD PUSH2 0x43F JUMP JUMPDEST PUSH1 0x1 SLOAD PUSH2 0x902 SWAP1 PUSH1 0x1 PUSH1 0x1 PUSH1 0xA0 SHL SUB AND CALLER ADDRESS DUP5 PUSH2 0xFB1 JUMP JUMPDEST PUSH1 0x40 DUP1 MLOAD PUSH1 0xE0 DUP2 ADD DUP3 MSTORE DUP3 DUP2 MSTORE PUSH1 0x20 DUP1 DUP3 ADD DUP8 DUP2 MSTORE DUP3 DUP5 ADD DUP8 DUP2 MSTORE TIMESTAMP PUSH1 0x60 DUP1 DUP7 ADD DUP3 DUP2 MSTORE PUSH1 0x80 DUP8 ADD SWAP3 DUP4 MSTORE PUSH1 0x0 PUSH1 0xA0 DUP9 ADD DUP2 DUP2 MSTORE PUSH1 0x1 PUSH1 0xC0 DUP11 ADD DUP2 DUP2 MSTORE CALLER DUP1 DUP6 MSTORE PUSH1 0x8 DUP12 MSTORE SWAP4 DUP13 SWAP1 KECCAK256 SWAP11 MLOAD DUP12 SSTORE SWAP8 MLOAD SWAP1 DUP11 ADD SSTORE SWAP5 MLOAD PUSH1 0x2 DUP10 ADD SSTORE SWAP1 MLOAD PUSH1 0x3 DUP9 ADD SSTORE SWAP2 MLOAD PUSH1 0x4 DUP8 ADD SSTORE SWAP2 MLOAD PUSH1 0x5 DUP7 ADD SSTORE SWAP2 MLOAD PUSH1 0x6 SWAP1 SWAP5 ADD DUP1 SLOAD PUSH1 0xFF NOT AND SWAP5 ISZERO ISZERO SWAP5 SWAP1 SWAP5 OR SWAP1 SWAP4 SSTORE DUP4 MLOAD DUP6 DUP2 MSTORE SWAP2 DUP3 ADD DUP9 SWAP1 MSTORE SWAP3 DUP2 ADD DUP7 SWAP1 MSTORE PUSH32 0x7C03DC81F71472A2597A8EF8B4153872402D03042AE8C322819422E7A7B8246F SWAP2 ADD JUMPDEST PUSH1 0x40 MLOAD DUP1 SWAP2 SUB SWAP1 LOG2 POP POP POP POP JUMP JUMPDEST PUSH1 0x0 PUSH2 0x9D6 DUP2 PUSH2 0xEAA JUMP JUMPDEST PUSH1 0x0 DUP4 GT DUP1 ISZERO PUSH2 0x9E5 JUMPI POP DUP3 DUP3 GT JUMPDEST PUSH2 0xA23 JUMPI PUSH1 0x40 MLOAD PUSH3 0x461BCD PUSH1 0xE5 SHL DUP2 MSTORE PUSH1 0x20 PUSH1 0x4 DUP3 ADD MSTORE PUSH1 0xF PUSH1 0x24 DUP3 ADD MSTORE PUSH15 0x696E76616C69642077696E646F7773 PUSH1 0x88 SHL PUSH1 0x44 DUP3 ADD MSTORE PUSH1 0x64 ADD PUSH2 0x43F JUMP JUMPDEST POP PUSH1 0x5 SWAP2 SWAP1 SWAP2 SSTORE PUSH1 0x6 SSTORE JUMP JUMPDEST PUSH1 0x0 SWAP2 DUP3 MSTORE PUSH1 0x20 DUP3 DUP2 MSTORE PUSH1 0x40 DUP1 DUP5 KECCAK256 PUSH1 0x1 PUSH1 0x1 PUSH1 0xA0 SHL SUB SWAP4 SWAP1 SWAP4 AND DUP5 MSTORE SWAP2 SWAP1 MSTORE SWAP1 KECCAK256 SLOAD PUSH1 0xFF AND SWAP1 JUMP JUMPDEST PUSH1 0x0 DUP3 DUP2 MSTORE PUSH1 0x20 DUP2 SWAP1 MSTORE PUSH1 0x40 SWAP1 KECCAK256 PUSH1 0x1 ADD SLOAD PUSH2 0xA73 DUP2 PUSH2 0xEAA JUMP JUMPDEST PUSH2 0x702 DUP4 DUP4 PUSH2 0xF46 JUMP JUMPDEST CALLER PUSH1 0x0 SWAP1 DUP2 MSTORE PUSH1 0x8 PUSH1 0x20 MSTORE PUSH1 0x40 SWAP1 KECCAK256 PUSH1 0x6 DUP2 ADD SLOAD PUSH1 0xFF AND PUSH2 0xAB0 JUMPI PUSH1 0x40 MLOAD PUSH3 0x461BCD PUSH1 0xE5 SHL DUP2 MSTORE PUSH1 0x4 ADD PUSH2 0x43F SWAP1 PUSH2 0x1167 JUMP JUMPDEST PUSH1 0x6 SLOAD DUP2 PUSH1 0x4 ADD SLOAD PUSH2 0xAC2 SWAP2 SWAP1 PUSH2 0x11F3 JUMP JUMPDEST TIMESTAMP GT PUSH2 0xB02 JUMPI PUSH1 0x40 MLOAD PUSH3 0x461BCD PUSH1 0xE5 SHL DUP2 MSTORE PUSH1 0x20 PUSH1 0x4 DUP3 ADD MSTORE PUSH1 0xF PUSH1 0x24 DUP3 ADD MSTORE PUSH15 0x1B9BDD081BDD995C991D59481E595D PUSH1 0x8A SHL PUSH1 0x44 DUP3 ADD MSTORE PUSH1 0x64 ADD PUSH2 0x43F JUMP JUMPDEST PUSH1 0x0 DUP2 PUSH1 0x5 ADD SLOAD DUP3 PUSH1 0x1 ADD SLOAD PUSH2 0xB18 SWAP2 SWAP1 PUSH2 0x11A7 JUMP JUMPDEST SWAP1 POP PUSH1 0x0 DUP2 DUP4 PUSH1 0x0 ADD SLOAD GT ISZERO PUSH2 0xB38 JUMPI DUP3 SLOAD PUSH2 0xB35 SWAP1 DUP4 SWAP1 PUSH2 0x11BE JUMP JUMPDEST SWAP1 POP JUMPDEST PUSH1 0x0 DUP2 GT PUSH2 0xB7C JUMPI PUSH1 0x40 MLOAD PUSH3 0x461BCD PUSH1 0xE5 SHL DUP2 MSTORE PUSH1 0x20 PUSH1 0x4 DUP3 ADD MSTORE PUSH1 0x11 PUSH1 0x24 DUP3 ADD MSTORE PUSH17 0x6E6F7468696E672072656D61696E696E67 PUSH1 0x78 SHL PUSH1 0x44 DUP3 ADD MSTORE PUSH1 0x64 ADD PUSH2 0x43F JUMP JUMPDEST PUSH1 0x0 PUSH1 0x64 PUSH1 0x3 SLOAD DUP4 PUSH2 0xB8E SWAP2 SWAP1 PUSH2 0x11A7 JUMP JUMPDEST PUSH2 0xB98 SWAP2 SWAP1 PUSH2 0x11D1 JUMP JUMPDEST PUSH1 0x2 SLOAD PUSH1 0x1 SLOAD SWAP2 SWAP3 POP PUSH2 0xBB8 SWAP2 PUSH1 0x1 PUSH1 0x1 PUSH1 0xA0 SHL SUB SWAP1 DUP2 AND SWAP2 AND DUP4 PUSH2 0xCB2 JUMP JUMPDEST DUP4 SLOAD PUSH2 0xBC5 SWAP1 DUP3 SWAP1 PUSH2 0x11BE JUMP JUMPDEST DUP5 SSTORE TIMESTAMP PUSH1 0x4 DUP6 ADD SSTORE PUSH1 0x40 MLOAD DUP2 DUP2 MSTORE CALLER SWAP1 PUSH32 0x34E652F10E1085A5C17C12B1979F43489F61641EEA462FE742B036E641E48F18 SWAP1 PUSH1 0x20 ADD PUSH2 0x9BD JUMP JUMPDEST PUSH2 0xC41 PUSH1 0x40 MLOAD DUP1 PUSH1 0xE0 ADD PUSH1 0x40 MSTORE DUP1 PUSH1 0x0 DUP2 MSTORE PUSH1 0x20 ADD PUSH1 0x0 DUP2 MSTORE PUSH1 0x20 ADD PUSH1 0x0 DUP2 MSTORE PUSH1 0x20 ADD PUSH1 0x0 DUP2 MSTORE PUSH1 0x20 ADD PUSH1 0x0 DUP2 MSTORE PUSH1 0x20 ADD PUSH1 0x0 DUP2 MSTORE PUSH1 0x20 ADD PUSH1 0x0 ISZERO ISZERO DUP2 MSTORE POP SWAP1 JUMP JUMPDEST POP PUSH1 0x1 PUSH1 0x1 PUSH1 0xA0 SHL SUB AND PUSH1 0x0 SWAP1 DUP2 MSTORE PUSH1 0x8 PUSH1 0x20 SWAP1 DUP2 MSTORE PUSH1 0x40 SWAP2 DUP3 SWAP1 KECCAK256 DUP3 MLOAD PUSH1 0xE0 DUP2 ADD DUP5 MSTORE DUP2 SLOAD DUP2 MSTORE PUSH1 0x1 DUP3 ADD SLOAD SWAP3 DUP2 ADD SWAP3 SWAP1 SWAP3 MSTORE PUSH1 0x2 DUP2 ADD SLOAD SWAP3 DUP3 ADD SWAP3 SWAP1 SWAP3 MSTORE PUSH1 0x3 DUP3 ADD SLOAD PUSH1 0x60 DUP3 ADD MSTORE PUSH1 0x4 DUP3 ADD SLOAD PUSH1 0x80 DUP3 ADD MSTORE PUSH1 0x5 DUP3 ADD SLOAD PUSH1 0xA0 DUP3 ADD MSTORE PUSH1 0x6 SWAP1 SWAP2 ADD SLOAD PUSH1 0xFF AND ISZERO ISZERO PUSH1 0xC0 DUP3 ADD MSTORE SWAP1 JUMP JUMPDEST PUSH1 0x40 MLOAD PUSH1 0x1 PUSH1 0x1 PUSH1 0xA0 SHL SUB DUP4 DUP2 AND PUSH1 0x24 DUP4 ADD MSTORE PUSH1 0x44 DUP3 ADD DUP4 SWAP1 MSTORE PUSH2 0x73B SWAP2 DUP6 SWAP2 DUP3 AND SWAP1 PUSH4 0xA9059CBB SWAP1 PUSH1 0x64 ADD JUMPDEST PUSH1 0x40 MLOAD PUSH1 0x20 DUP2 DUP4 SUB SUB DUP2 MSTORE SWAP1 PUSH1 0x40 MSTORE SWAP2 POP PUSH1 0xE0 SHL PUSH1 0x20 DUP3 ADD DUP1 MLOAD PUSH1 0x1 PUSH1 0x1 PUSH1 0xE0 SHL SUB DUP4 DUP2 DUP4 AND OR DUP4 MSTORE POP POP POP POP PUSH2 0xFEA JUMP JUMPDEST PUSH1 0x1 PUSH1 0x1 PUSH1 0xA0 SHL SUB DUP2 AND PUSH1 0x0 SWAP1 DUP2 MSTORE PUSH1 0x8 PUSH1 0x20 MSTORE PUSH1 0x40 SWAP1 KECCAK256 PUSH1 0x6 DUP2 ADD SLOAD PUSH1 0xFF AND PUSH2 0xD6A JUMPI PUSH1 0x40 MLOAD PUSH3 0x461BCD PUSH1 0xE5 SHL DUP2 MSTORE PUSH1 0x20 PUSH1 0x4 DUP3 ADD MSTORE PUSH1 0xA PUSH1 0x24 DUP3 ADD MSTORE PUSH10 0x6E6F7420616374697665 PUSH1 0xB0 SHL PUSH1 0x44 DUP3 ADD MSTORE PUSH1 0x64 ADD PUSH2 0x43F JUMP JUMPDEST PUSH1 0x0 DUP2 PUSH1 0x5 ADD SLOAD DUP3 PUSH1 0x1 ADD SLOAD PUSH2 0xD80 SWAP2 SWAP1 PUSH2 0x11A7 JUMP JUMPDEST SWAP1 POP PUSH1 0x0 DUP2 DUP4 PUSH1 0x0 ADD SLOAD GT ISZERO PUSH2 0xDA0 JUMPI DUP3 SLOAD PUSH2 0xD9D SWAP1 DUP4 SWAP1 PUSH2 0x11BE JUMP JUMPDEST SWAP1 POP JUMPDEST PUSH1 0x6 DUP4 ADD DUP1 SLOAD PUSH1 0xFF NOT AND SWAP1 SSTORE PUSH1 0x0 DUP1 DUP5 SSTORE PUSH1 0x1 DUP5 ADD DUP2 SWAP1 SSTORE PUSH1 0x2 DUP5 ADD DUP2 SWAP1 SSTORE PUSH1 0x3 DUP5 ADD DUP2 SWAP1 SSTORE PUSH1 0x4 DUP5 ADD DUP2 SWAP1 SSTORE PUSH1 0x5 DUP5 ADD SSTORE DUP1 ISZERO PUSH2 0xDEF JUMPI PUSH1 0x1 SLOAD PUSH2 0xDEF SWAP1 PUSH1 0x1 PUSH1 0x1 PUSH1 0xA0 SHL SUB AND DUP6 DUP4 PUSH2 0xCB2 JUMP JUMPDEST PUSH1 0x7 SLOAD PUSH1 0x1 PUSH1 0x1 PUSH1 0xA0 SHL SUB AND ISZERO PUSH2 0xE6F JUMPI PUSH1 0x7 SLOAD PUSH1 0x40 DUP1 MLOAD PUSH4 0xD6575F9 PUSH1 0xE3 SHL DUP2 MSTORE PUSH1 0x1 PUSH1 0x1 PUSH1 0xA0 SHL SUB DUP8 DUP2 AND PUSH1 0x4 DUP4 ADD MSTORE PUSH1 0x24 DUP3 ADD SWAP3 SWAP1 SWAP3 MSTORE PUSH1 0x0 PUSH1 0x44 DUP3 ADD MSTORE SWAP2 AND SWAP1 PUSH4 0x6B2BAFC8 SWAP1 PUSH1 0x64 ADD PUSH1 0x0 PUSH1 0x40 MLOAD DUP1 DUP4 SUB DUP2 PUSH1 0x0 DUP8 DUP1 EXTCODESIZE ISZERO DUP1 ISZERO PUSH2 0xE56 JUMPI PUSH1 0x0 DUP1 REVERT JUMPDEST POP GAS CALL ISZERO DUP1 ISZERO PUSH2 0xE6A JUMPI RETURNDATASIZE PUSH1 0x0 DUP1 RETURNDATACOPY RETURNDATASIZE PUSH1 0x0 REVERT JUMPDEST POP POP POP POP JUMPDEST DUP4 PUSH1 0x1 PUSH1 0x1 PUSH1 0xA0 SHL SUB AND PUSH32 0x66B6851664A82EFE6B871E434FABA2B11421D2DAD65EB71A344AE76CCA8A2B86 DUP3 PUSH1 0x40 MLOAD PUSH2 0x9BD SWAP2 DUP2 MSTORE PUSH1 0x20 ADD SWAP1 JUMP JUMPDEST PUSH2 0x69D DUP2 CALLER PUSH2 0x105B JUMP JUMPDEST PUSH1 0x0 PUSH2 0xEC0 DUP4 DUP4 PUSH2 0xA2F JUMP JUMPDEST PUSH2 0xF3E JUMPI PUSH1 0x0 DUP4 DUP2 MSTORE PUSH1 0x20 DUP2 DUP2 MSTORE PUSH1 0x40 DUP1 DUP4 KECCAK256 PUSH1 0x1 PUSH1 0x1 PUSH1 0xA0 SHL SUB DUP7 AND DUP5 MSTORE SWAP1 SWAP2 MSTORE SWAP1 KECCAK256 DUP1 SLOAD PUSH1 0xFF NOT AND PUSH1 0x1 OR SWAP1 SSTORE PUSH2 0xEF6 CALLER SWAP1 JUMP JUMPDEST PUSH1 0x1 PUSH1 0x1 PUSH1 0xA0 SHL SUB AND DUP3 PUSH1 0x1 PUSH1 0x1 PUSH1 0xA0 SHL SUB AND DUP5 PUSH32 0x2F8788117E7EFF1D82E926EC794901D17C78024A50270940304540A733656F0D PUSH1 0x40 MLOAD PUSH1 0x40 MLOAD DUP1 SWAP2 SUB SWAP1 LOG4 POP PUSH1 0x1 PUSH2 0x406 JUMP JUMPDEST POP PUSH1 0x0 PUSH2 0x406 JUMP JUMPDEST PUSH1 0x0 PUSH2 0xF52 DUP4 DUP4 PUSH2 0xA2F JUMP JUMPDEST ISZERO PUSH2 0xF3E JUMPI PUSH1 0x0 DUP4 DUP2 MSTORE PUSH1 0x20 DUP2 DUP2 MSTORE PUSH1 0x40 DUP1 DUP4 KECCAK256 PUSH1 0x1 PUSH1 0x1 PUSH1 0xA0 SHL SUB DUP7 AND DUP1 DUP6 MSTORE SWAP3 MSTORE DUP1 DUP4 KECCAK256 DUP1 SLOAD PUSH1 0xFF NOT AND SWAP1 SSTORE MLOAD CALLER SWAP3 DUP7 SWAP2 PUSH32 0xF6391F5C32D9C69D2A47EA670B442974B53935D1EDC7FD64EB21E047A839171B SWAP2 SWAP1 LOG4 POP PUSH1 0x1 PUSH2 0x406 JUMP JUMPDEST PUSH1 0x40 MLOAD PUSH1 0x1 PUSH1 0x1 PUSH1 0xA0 SHL SUB DUP5 DUP2 AND PUSH1 0x24 DUP4 ADD MSTORE DUP4 DUP2 AND PUSH1 0x44 DUP4 ADD MSTORE PUSH1 0x64 DUP3 ADD DUP4 SWAP1 MSTORE PUSH2 0x702 SWAP2 DUP7 SWAP2 DUP3 AND SWAP1 PUSH4 0x23B872DD SWAP1 PUSH1 0x84 ADD PUSH2 0xCDF JUMP JUMPDEST PUSH1 0x0 DUP1 PUSH1 0x20 PUSH1 0x0 DUP5 MLOAD PUSH1 0x20 DUP7 ADD PUSH1 0x0 DUP9 GAS CALL DUP1 PUSH2 0x100D JUMPI PUSH1 0x40 MLOAD RETURNDATASIZE PUSH1 0x0 DUP3 RETURNDATACOPY RETURNDATASIZE DUP2 REVERT JUMPDEST POP POP PUSH1 0x0 MLOAD RETURNDATASIZE SWAP2 POP DUP2 ISZERO PUSH2 0x1025 JUMPI DUP1 PUSH1 0x1 EQ ISZERO PUSH2 0x1032 JUMP JUMPDEST PUSH1 0x1 PUSH1 0x1 PUSH1 0xA0 SHL SUB DUP5 AND EXTCODESIZE ISZERO JUMPDEST ISZERO PUSH2 0x702 JUMPI PUSH1 0x40 MLOAD PUSH4 0x5274AFE7 PUSH1 0xE0 SHL DUP2 MSTORE PUSH1 0x1 PUSH1 0x1 PUSH1 0xA0 SHL SUB DUP6 AND PUSH1 0x4 DUP3 ADD MSTORE PUSH1 0x24 ADD PUSH2 0x43F JUMP JUMPDEST PUSH2 0x1065 DUP3 DUP3 PUSH2 0xA2F JUMP JUMPDEST PUSH2 0x1094 JUMPI PUSH1 0x40 MLOAD PUSH4 0xE2517D3F PUSH1 0xE0 SHL DUP2 MSTORE PUSH1 0x1 PUSH1 0x1 PUSH1 0xA0 SHL SUB DUP3 AND PUSH1 0x4 DUP3 ADD MSTORE PUSH1 0x24 DUP2 ADD DUP4 SWAP1 MSTORE PUSH1 0x44 ADD PUSH2 0x43F JUMP JUMPDEST POP POP JUMP JUMPDEST PUSH1 0x0 PUSH1 0x20 DUP3 DUP5 SUB SLT ISZERO PUSH2 0x10AA JUMPI PUSH1 0x0 DUP1 REVERT JUMPDEST DUP2 CALLDATALOAD PUSH1 0x1 PUSH1 0x1 PUSH1 0xE0 SHL SUB NOT DUP2 AND DUP2 EQ PUSH2 0x10C2 JUMPI PUSH1 0x0 DUP1 REVERT JUMPDEST SWAP4 SWAP3 POP POP POP JUMP JUMPDEST PUSH1 0x0 PUSH1 0x20 DUP3 DUP5 SUB SLT ISZERO PUSH2 0x10DB JUMPI PUSH1 0x0 DUP1 REVERT JUMPDEST POP CALLDATALOAD SWAP2 SWAP1 POP JUMP JUMPDEST DUP1 CALLDATALOAD PUSH1 0x1 PUSH1 0x1 PUSH1 0xA0 SHL SUB DUP2 AND DUP2 EQ PUSH2 0x10F9 JUMPI PUSH1 0x0 DUP1 REVERT JUMPDEST SWAP2 SWAP1 POP JUMP JUMPDEST PUSH1 0x0 DUP1 PUSH1 0x40 DUP4 DUP6 SUB SLT ISZERO PUSH2 0x1111 JUMPI PUSH1 0x0 DUP1 REVERT JUMPDEST DUP3 CALLDATALOAD SWAP2 POP PUSH2 0x1121 PUSH1 0x20 DUP5 ADD PUSH2 0x10E2 JUMP JUMPDEST SWAP1 POP SWAP3 POP SWAP3 SWAP1 POP JUMP JUMPDEST PUSH1 0x0 DUP1 PUSH1 0x40 DUP4 DUP6 SUB SLT ISZERO PUSH2 0x113D JUMPI PUSH1 0x0 DUP1 REVERT JUMPDEST POP POP DUP1 CALLDATALOAD SWAP3 PUSH1 0x20 SWAP1 SWAP2 ADD CALLDATALOAD SWAP2 POP JUMP JUMPDEST PUSH1 0x0 PUSH1 0x20 DUP3 DUP5 SUB SLT ISZERO PUSH2 0x115E JUMPI PUSH1 0x0 DUP1 REVERT JUMPDEST PUSH2 0x10C2 DUP3 PUSH2 0x10E2 JUMP JUMPDEST PUSH1 0x20 DUP1 DUP3 MSTORE PUSH1 0x10 SWAP1 DUP3 ADD MSTORE PUSH16 0x1B9BC81858DD1A5D994818DBDB5B5A5D PUSH1 0x82 SHL PUSH1 0x40 DUP3 ADD MSTORE PUSH1 0x60 ADD SWAP1 JUMP JUMPDEST PUSH4 0x4E487B71 PUSH1 0xE0 SHL PUSH1 0x0 MSTORE PUSH1 0x11 PUSH1 0x4 MSTORE PUSH1 0x24 PUSH1 0x0 REVERT JUMPDEST DUP1 DUP3 MUL DUP2 ISZERO DUP3 DUP3 DIV DUP5 EQ OR PUSH2 0x406 JUMPI PUSH2 0x406 PUSH2 0x1191 JUMP JUMPDEST DUP2 DUP2 SUB DUP2 DUP2 GT ISZERO PUSH2 0x406 JUMPI PUSH2 0x406 PUSH2 0x1191 JUMP JUMPDEST PUSH1 0x0 DUP3 PUSH2 0x11EE JUMPI PUSH4 0x4E487B71 PUSH1 0xE0 SHL PUSH1 0x0 MSTORE PUSH1 0x12 PUSH1 0x4 MSTORE PUSH1 0x24 PUSH1 0x0 REVERT JUMPDEST POP DIV SWAP1 JUMP JUMPDEST DUP1 DUP3 ADD DUP1 DUP3 GT ISZERO PUSH2 0x406 JUMPI PUSH2 0x406 PUSH2 0x1191 JUMP INVALID LOG2 PUSH5 0x6970667358 0x22 SLT KECCAK256 ADDRESS SUB DUP7 0xE4 JUMPI SWAP11 0xBA 0x4D CALLCODE RETURNDATACOPY 0xBD DUP15 POP LT SWAP5 0xD7 0xF6 0x22 PUSH5 0x993E013378 DUP10 0xAD GASLIMIT PUSH30 0x2C2A9B9964736F6C63430008140033000000000000000000000000000000 "},"methodIdentifiers":{"DEFAULT_ADMIN()":"9cdeba95","DEFAULT_ADMIN_ROLE()":"a217fddf","badgeContract()":"8d6d4925","checkIn()":"183ff085","commitments(address)":"e8fcf723","earlyPenaltyPercent()":"57f2aa4b","earlyWithdraw()":"15d74bb3","getCommitment(address)":"fa1026dd","getRoleAdmin(bytes32)":"248a9ca3","grantRole(bytes32,address)":"2f2ff15d","hasRole(bytes32,address)":"91d14854","maxInterval()":"cae774b3","minInterval()":"3fb19a53","paySkipPenalty()":"f0942d6b","renounceRole(bytes32,address)":"36568abe","revokeRole(bytes32,address)":"d547741f","setBadgeContract(address)":"47d212da","setPenaltyPercents(uint256,uint256)":"3a00f741","setTimeWindows(uint256,uint256)":"7e088c26","skipPenaltyPercent()":"e160ab19","startCommit(uint256,uint256)":"67025b3c","supportsInterface(bytes4)":"01ffc9a7","treasury()":"61d027b3","usdt()":"2f48ab7d"}}}}}