{
  "_format": "hh-sol-artifact-1",
  "contractName": "CommitSaving",
  "sourceName": "contracts/CommitSaving.sol",
  "abi": [
    {
      "inputs": [
        {
          "internalType": "address",
          "name": "usdtAddress",
          "type": "address"
        },
        {
          "internalType": "address",
          "name": "treasuryAddress",
          "type": "address"
        },
        {
          "internalType": "uint256",
          "name": "_earlyPenaltyPercent",
          "type": "uint256"
        }
      ],
      "stateMutability": "nonpayable",
      "type": "constructor"
    },
    {
      "inputs": [],
      "name": "AccessControlBadConfirmation",
      "type": "error"
    },
    {
      "inputs": [
        {
          "internalType": "address",
          "name": "account",
          "type": "address"
        },
        {
          "internalType": "bytes32",
          "name": "neededRole",
          "type": "bytes32"
        }
      ],
      "name": "AccessControlUnauthorizedAccount",
      "type": "error"
    },
    {
      "inputs": [
        {
          "internalType": "address",
          "name": "token",
          "type": "address"
        }
      ],
      "name": "SafeERC20FailedOperation",
      "type": "error"
    },
    {
      "anonymous": false,
      "inputs": [
        {
          "indexed": true,
          "internalType": "address",
          "name": "admin",
          "type": "address"
        },
        {
          "indexed": false,
          "internalType": "address",
          "name": "badge",
          "type": "address"
        }
      ],
      "name": "BadgeContractSet",
      "type": "event"
    },
    {
      "anonymous": false,
      "inputs": [
        {
          "indexed": true,
          "internalType": "address",
          "name": "user",
          "type": "address"
        },
        {
          "indexed": false,
          "internalType": "uint256",
          "name": "completedDays",
          "type": "uint256"
        }
      ],
      "name": "CheckedIn",
      "type": "event"
    },
    {
      "anonymous": false,
      "inputs": [
        {
          "indexed": true,
          "internalType": "address",
          "name": "user",
          "type": "address"
        },
        {
          "indexed": false,
          "internalType": "uint256",
          "name": "totalAmount",
          "type": "uint256"
        },
        {
          "indexed": false,
          "internalType": "uint256",
          "name": "dailyAmount",
          "type": "uint256"
        },
        {
          "indexed": false,
          "internalType": "uint256",
          "name": "durationDays",
          "type": "uint256"
        }
      ],
      "name": "CommitStarted",
      "type": "event"
    },
    {
      "anonymous": false,
      "inputs": [
        {
          "indexed": true,
          "internalType": "address",
          "name": "user",
          "type": "address"
        },
        {
          "indexed": false,
          "internalType": "uint256",
          "name": "amountAfterPenalty",
          "type": "uint256"
        }
      ],
      "name": "EarlyWithdrawn",
      "type": "event"
    },
    {
      "anonymous": false,
      "inputs": [
        {
          "indexed": true,
          "internalType": "address",
          "name": "user",
          "type": "address"
        },
        {
          "indexed": false,
          "internalType": "uint256",
          "name": "returnedAmount",
          "type": "uint256"
        }
      ],
      "name": "Finalized",
      "type": "event"
    },
    {
      "anonymous": false,
      "inputs": [
        {
          "indexed": true,
          "internalType": "bytes32",
          "name": "role",
          "type": "bytes32"
        },
        {
          "indexed": true,
          "internalType": "bytes32",
          "name": "previousAdminRole",
          "type": "bytes32"
        },
        {
          "indexed": true,
          "internalType": "bytes32",
          "name": "newAdminRole",
          "type": "bytes32"
        }
      ],
      "name": "RoleAdminChanged",
      "type": "event"
    },
    {
      "anonymous": false,
      "inputs": [
        {
          "indexed": true,
          "internalType": "bytes32",
          "name": "role",
          "type": "bytes32"
        },
        {
          "indexed": true,
          "internalType": "address",
          "name": "account",
          "type": "address"
        },
        {
          "indexed": true,
          "internalType": "address",
          "name": "sender",
          "type": "address"
        }
      ],
      "name": "RoleGranted",
      "type": "event"
    },
    {
      "anonymous": false,
      "inputs": [
        {
          "indexed": true,
          "internalType": "bytes32",
          "name": "role",
          "type": "bytes32"
        },
        {
          "indexed": true,
          "internalType": "address",
          "name": "account",
          "type": "address"
        },
        {
          "indexed": true,
          "internalType": "address",
          "name": "sender",
          "type": "address"
        }
      ],
      "name": "RoleRevoked",
      "type": "event"
    },
    {
      "anonymous": false,
      "inputs": [
        {
          "indexed": true,
          "internalType": "address",
          "name": "user",
          "type": "address"
        },
        {
          "indexed": false,
          "internalType": "uint256",
          "name": "penaltyAmount",
          "type": "uint256"
        }
      ],
      "name": "SkipPenaltyPaid",
      "type": "event"
    },
    {
      "inputs": [],
      "name": "DEFAULT_ADMIN",
      "outputs": [
        {
          "internalType": "bytes32",
          "name": "",
          "type": "bytes32"
        }
      ],
      "stateMutability": "view",
      "type": "function"
    },
    {
      "inputs": [],
      "name": "DEFAULT_ADMIN_ROLE",
      "outputs": [
        {
          "internalType": "bytes32",
          "name": "",
          "type": "bytes32"
        }
      ],
      "stateMutability": "view",
      "type": "function"
    },
    {
      "inputs": [],
      "name": "badgeContract",
      "outputs": [
        {
          "internalType": "address",
          "name": "",
          "type": "address"
        }
      ],
      "stateMutability": "view",
      "type": "function"
    },
    {
      "inputs": [],
      "name": "checkIn",
      "outputs": [],
      "stateMutability": "nonpayable",
      "type": "function"
    },
    {
      "inputs": [
        {
          "internalType": "address",
          "name": "",
          "type": "address"
        }
      ],
      "name": "commitments",
      "outputs": [
        {
          "internalType": "uint256",
          "name": "totalAmount",
          "type": "uint256"
        },
        {
          "internalType": "uint256",
          "name": "dailyAmount",
          "type": "uint256"
        },
        {
          "internalType": "uint256",
          "name": "durationDays",
          "type": "uint256"
        },
        {
          "internalType": "uint256",
          "name": "startTimestamp",
          "type": "uint256"
        },
        {
          "internalType": "uint256",
          "name": "lastCheckin",
          "type": "uint256"
        },
        {
          "internalType": "uint256",
          "name": "completedDays",
          "type": "uint256"
        },
        {
          "internalType": "bool",
          "name": "active",
          "type": "bool"
        }
      ],
      "stateMutability": "view",
      "type": "function"
    },
    {
      "inputs": [],
      "name": "earlyPenaltyPercent",
      "outputs": [
        {
          "internalType": "uint256",
          "name": "",
          "type": "uint256"
        }
      ],
      "stateMutability": "view",
      "type": "function"
    },
    {
      "inputs": [],
      "name": "earlyWithdraw",
      "outputs": [],
      "stateMutability": "nonpayable",
      "type": "function"
    },
    {
      "inputs": [
        {
          "internalType": "address",
          "name": "user",
          "type": "address"
        }
      ],
      "name": "getCommitment",
      "outputs": [
        {
          "components": [
            {
              "internalType": "uint256",
              "name": "totalAmount",
              "type": "uint256"
            },
            {
              "internalType": "uint256",
              "name": "dailyAmount",
              "type": "uint256"
            },
            {
              "internalType": "uint256",
              "name": "durationDays",
              "type": "uint256"
            },
            {
              "internalType": "uint256",
              "name": "startTimestamp",
              "type": "uint256"
            },
            {
              "internalType": "uint256",
              "name": "lastCheckin",
              "type": "uint256"
            },
            {
              "internalType": "uint256",
              "name": "completedDays",
              "type": "uint256"
            },
            {
              "internalType": "bool",
              "name": "active",
              "type": "bool"
            }
          ],
          "internalType": "struct CommitSaving.Commitment",
          "name": "",
          "type": "tuple"
        }
      ],
      "stateMutability": "view",
      "type": "function"
    },
    {
      "inputs": [
        {
          "internalType": "bytes32",
          "name": "role",
          "type": "bytes32"
        }
      ],
      "name": "getRoleAdmin",
      "outputs": [
        {
          "internalType": "bytes32",
          "name": "",
          "type": "bytes32"
        }
      ],
      "stateMutability": "view",
      "type": "function"
    },
    {
      "inputs": [
        {
          "internalType": "bytes32",
          "name": "role",
          "type": "bytes32"
        },
        {
          "internalType": "address",
          "name": "account",
          "type": "address"
        }
      ],
      "name": "grantRole",
      "outputs": [],
      "stateMutability": "nonpayable",
      "type": "function"
    },
    {
      "inputs": [
        {
          "internalType": "bytes32",
          "name": "role",
          "type": "bytes32"
        },
        {
          "internalType": "address",
          "name": "account",
          "type": "address"
        }
      ],
      "name": "hasRole",
      "outputs": [
        {
          "internalType": "bool",
          "name": "",
          "type": "bool"
        }
      ],
      "stateMutability": "view",
      "type": "function"
    },
    {
      "inputs": [],
      "name": "maxInterval",
      "outputs": [
        {
          "internalType": "uint256",
          "name": "",
          "type": "uint256"
        }
      ],
      "stateMutability": "view",
      "type": "function"
    },
    {
      "inputs": [],
      "name": "minInterval",
      "outputs": [
        {
          "internalType": "uint256",
          "name": "",
          "type": "uint256"
        }
      ],
      "stateMutability": "view",
      "type": "function"
    },
    {
      "inputs": [],
      "name": "paySkipPenalty",
      "outputs": [],
      "stateMutability": "nonpayable",
      "type": "function"
    },
    {
      "inputs": [
        {
          "internalType": "bytes32",
          "name": "role",
          "type": "bytes32"
        },
        {
          "internalType": "address",
          "name": "callerConfirmation",
          "type": "address"
        }
      ],
      "name": "renounceRole",
      "outputs": [],
      "stateMutability": "nonpayable",
      "type": "function"
    },
    {
      "inputs": [
        {
          "internalType": "bytes32",
          "name": "role",
          "type": "bytes32"
        },
        {
          "internalType": "address",
          "name": "account",
          "type": "address"
        }
      ],
      "name": "revokeRole",
      "outputs": [],
      "stateMutability": "nonpayable",
      "type": "function"
    },
    {
      "inputs": [
        {
          "internalType": "address",
          "name": "_badge",
          "type": "address"
        }
      ],
      "name": "setBadgeContract",
      "outputs": [],
      "stateMutability": "nonpayable",
      "type": "function"
    },
    {
      "inputs": [
        {
          "internalType": "uint256",
          "name": "_skipPercent",
          "type": "uint256"
        },
        {
          "internalType": "uint256",
          "name": "_earlyPercent",
          "type": "uint256"
        }
      ],
      "name": "setPenaltyPercents",
      "outputs": [],
      "stateMutability": "nonpayable",
      "type": "function"
    },
    {
      "inputs": [
        {
          "internalType": "uint256",
          "name": "_minIntervalSec",
          "type": "uint256"
        },
        {
          "internalType": "uint256",
          "name": "_maxIntervalSec",
          "type": "uint256"
        }
      ],
      "name": "setTimeWindows",
      "outputs": [],
      "stateMutability": "nonpayable",
      "type": "function"
    },
    {
      "inputs": [],
      "name": "skipPenaltyPercent",
      "outputs": [
        {
          "internalType": "uint256",
          "name": "",
          "type": "uint256"
        }
      ],
      "stateMutability": "view",
      "type": "function"
    },
    {
      "inputs": [
        {
          "internalType": "uint256",
          "name": "dailyAmount",
          "type": "uint256"
        },
        {
          "internalType": "uint256",
          "name": "durationDays",
          "type": "uint256"
        }
      ],
      "name": "startCommit",
      "outputs": [],
      "stateMutability": "nonpayable",
      "type": "function"
    },
    {
      "inputs": [
        {
          "internalType": "bytes4",
          "name": "interfaceId",
          "type": "bytes4"
        }
      ],
      "name": "supportsInterface",
      "outputs": [
        {
          "internalType": "bool",
          "name": "",
          "type": "bool"
        }
      ],
      "stateMutability": "view",
      "type": "function"
    },
    {
      "inputs": [],
      "name": "treasury",
      "outputs": [
        {
          "internalType": "address",
          "name": "",
          "type": "address"
        }
      ],
      "stateMutability": "view",
      "type": "function"
    },
    {
      "inputs": [],
      "name": "usdt",
      "outputs": [
        {
          "internalType": "contract IERC20",
          "name": "",
          "type": "address"
        }
      ],
      "stateMutability": "view",
      "type": "function"
    }
  ],
  "bytecode": "0x60806040526005600355600a60045561a8c06005556202a3006006553480156200002857600080fd5b5060405162001486380380620014868339810160408190526200004b91620001f9565b6001600160a01b038316620000965760405162461bcd60e51b815260206004820152600c60248201526b1a5b9d985b1a59081d5cd91d60a21b60448201526064015b60405180910390fd5b6001600160a01b038216620000e15760405162461bcd60e51b815260206004820152601060248201526f696e76616c696420747265617375727960801b60448201526064016200008d565b600180546001600160a01b038086166001600160a01b03199283161790925560028054928516929091169190911790556004819055620001236000336200012d565b505050506200023a565b6000828152602081815260408083206001600160a01b038516845290915281205460ff16620001d2576000838152602081815260408083206001600160a01b03861684529091529020805460ff19166001179055620001893390565b6001600160a01b0316826001600160a01b0316847f2f8788117e7eff1d82e926ec794901d17c78024a50270940304540a733656f0d60405160405180910390a4506001620001d6565b5060005b92915050565b80516001600160a01b0381168114620001f457600080fd5b919050565b6000806000606084860312156200020f57600080fd5b6200021a84620001dc565b92506200022a60208501620001dc565b9150604084015190509250925092565b61123c806200024a6000396000f3fe608060405234801561001057600080fd5b50600436106101585760003560e01c806367025b3c116100c3578063cae774b31161007c578063cae774b3146102b8578063d547741f146102c1578063e160ab19146102d4578063e8fcf723146102dd578063f0942d6b14610362578063fa1026dd1461036a57600080fd5b806367025b3c146102645780637e088c26146102775780638d6d49251461028a57806391d148541461029d5780639cdeba95146102b0578063a217fddf146102b057600080fd5b806336568abe1161011557806336568abe146102065780633a00f741146102195780633fb19a531461022c57806347d212da1461023557806357f2aa4b1461024857806361d027b31461025157600080fd5b806301ffc9a71461015d57806315d74bb314610185578063183ff0851461018f578063248a9ca3146101975780632f2ff15d146101c85780632f48ab7d146101db575b600080fd5b61017061016b366004611098565b6103d5565b60405190151581526020015b60405180910390f35b61018d61040c565b005b61018d610558565b6101ba6101a53660046110c9565b60009081526020819052604090206001015490565b60405190815260200161017c565b61018d6101d63660046110fe565b6106dd565b6001546101ee906001600160a01b031681565b6040516001600160a01b03909116815260200161017c565b61018d6102143660046110fe565b610708565b61018d61022736600461112a565b610740565b6101ba60055481565b61018d61024336600461114c565b610757565b6101ba60045481565b6002546101ee906001600160a01b031681565b61018d61027236600461112a565b6107b9565b61018d61028536600461112a565b6109cb565b6007546101ee906001600160a01b031681565b6101706102ab3660046110fe565b610a2f565b6101ba600081565b6101ba60065481565b61018d6102cf3660046110fe565b610a58565b6101ba60035481565b61032b6102eb36600461114c565b6008602052600090815260409020805460018201546002830154600384015460048501546005860154600690960154949593949293919290919060ff1687565b604080519788526020880196909652948601939093526060850191909152608084015260a0830152151560c082015260e00161017c565b61018d610a7d565b61037d61037836600461114c565b610bff565b60405161017c9190600060e082019050825182526020830151602083015260408301516040830152606083015160608301526080830151608083015260a083015160a083015260c0830151151560c083015292915050565b60006001600160e01b03198216637965db0b60e01b148061040657506301ffc9a760e01b6001600160e01b03198316145b92915050565b336000908152600860205260409020600681015460ff166104485760405162461bcd60e51b815260040161043f90611167565b60405180910390fd5b60008160050154826001015461045e91906111a7565b90506000818360000154111561047e57825461047b9083906111be565b90505b600060646004548361049091906111a7565b61049a91906111d1565b905060006104a882846111be565b60068601805460ff191690556000808755600187018190556002870181905560038701819055600487018190556005870155905081156104ff576002546001546104ff916001600160a01b03918216911684610cb2565b801561051c5760015461051c906001600160a01b03163383610cb2565b60405181815233907fee36dd0255398c602fbe14e8a2d270c38f5a10614783d14e42f88f478db822c69060200160405180910390a25050505050565b336000908152600860205260409020600681015460ff1661058b5760405162461bcd60e51b815260040161043f90611167565b600554816004015461059d91906111f3565b4210156105e55760405162461bcd60e51b81526020600482015260166024820152753a37b79032b0b9363c903337b91031b432b1b596b4b760511b604482015260640161043f565b60065481600401546105f791906111f3565b4211156106625760405162461bcd60e51b815260206004820152603360248201527f6d69737365642077696e646f77202d20706c656173652070617920736b69702060448201527270656e616c747920746f20636f6e74696e756560681b606482015260840161043f565b428160040181905550600181600501600082825461068091906111f3565b909155505060028101546005820154106106a05761069d33610d11565b50565b600581015460405190815233907fdddb6e14f7f2101397a6526aab95e964de7f1f44ed06aa47a1c9a0e6b99244569060200160405180910390a250565b6000828152602081905260409020600101546106f881610eaa565b6107028383610eb4565b50505050565b6001600160a01b03811633146107315760405163334bd91960e11b815260040160405180910390fd5b61073b8282610f46565b505050565b600061074b81610eaa565b50600391909155600455565b600061076281610eaa565b600780546001600160a01b0319166001600160a01b03841690811790915560405190815233907f76e2f00cb6847623f2b07403c24ef7407538ec235fb877b4cc3757e7f9c06ab69060200160405180910390a25050565b600082116107fb5760405162461bcd60e51b815260206004820152600f60248201526e06461696c79416d6f756e74203e203608c1b604482015260640161043f565b6000811161083e5760405162461bcd60e51b815260206004820152601060248201526f06475726174696f6e44617973203e20360841b604482015260640161043f565b336000908152600860205260409020600681015460ff16156108995760405162461bcd60e51b815260206004820152601460248201527361637469766520636f6d6d69742065786973747360601b604482015260640161043f565b60006108a583856111a7565b9050836108b284836111d1565b146108ea5760405162461bcd60e51b81526020600482015260086024820152676f766572666c6f7760c01b604482015260640161043f565b600154610902906001600160a01b0316333084610fb1565b6040805160e081018252828152602080820187815282840187815242606080860182815260808701928352600060a08801818152600160c08a018181523380855260088b52938c90209a518b559751908a01559451600289015590516003880155915160048701559151600586015591516006909401805460ff19169415159490941790935583518581529182018890529281018690527f7c03dc81f71472a2597a8ef8b4153872402d03042ae8c322819422e7a7b8246f91015b60405180910390a250505050565b60006109d681610eaa565b6000831180156109e557508282115b610a235760405162461bcd60e51b815260206004820152600f60248201526e696e76616c69642077696e646f777360881b604482015260640161043f565b50600591909155600655565b6000918252602082815260408084206001600160a01b0393909316845291905290205460ff1690565b600082815260208190526040902060010154610a7381610eaa565b6107028383610f46565b336000908152600860205260409020600681015460ff16610ab05760405162461bcd60e51b815260040161043f90611167565b6006548160040154610ac291906111f3565b4211610b025760405162461bcd60e51b815260206004820152600f60248201526e1b9bdd081bdd995c991d59481e595d608a1b604482015260640161043f565b600081600501548260010154610b1891906111a7565b905060008183600001541115610b38578254610b359083906111be565b90505b60008111610b7c5760405162461bcd60e51b81526020600482015260116024820152706e6f7468696e672072656d61696e696e6760781b604482015260640161043f565b6000606460035483610b8e91906111a7565b610b9891906111d1565b600254600154919250610bb8916001600160a01b03908116911683610cb2565b8354610bc59082906111be565b845542600485015560405181815233907f34e652f10e1085a5c17c12b1979f43489f61641eea462fe742b036e641e48f18906020016109bd565b610c416040518060e001604052806000815260200160008152602001600081526020016000815260200160008152602001600081526020016000151581525090565b506001600160a01b0316600090815260086020908152604091829020825160e081018452815481526001820154928101929092526002810154928201929092526003820154606082015260048201546080820152600582015460a082015260069091015460ff16151560c082015290565b6040516001600160a01b0383811660248301526044820183905261073b91859182169063a9059cbb906064015b604051602081830303815290604052915060e01b6020820180516001600160e01b038381831617835250505050610fea565b6001600160a01b0381166000908152600860205260409020600681015460ff16610d6a5760405162461bcd60e51b815260206004820152600a6024820152696e6f742061637469766560b01b604482015260640161043f565b600081600501548260010154610d8091906111a7565b905060008183600001541115610da0578254610d9d9083906111be565b90505b60068301805460ff1916905560008084556001840181905560028401819055600384018190556004840181905560058401558015610def57600154610def906001600160a01b03168583610cb2565b6007546001600160a01b031615610e6f5760075460408051630d6575f960e31b81526001600160a01b038781166004830152602482019290925260006044820152911690636b2bafc890606401600060405180830381600087803b158015610e5657600080fd5b505af1158015610e6a573d6000803e3d6000fd5b505050505b836001600160a01b03167f66b6851664a82efe6b871e434faba2b11421d2dad65eb71a344ae76cca8a2b86826040516109bd91815260200190565b61069d813361105b565b6000610ec08383610a2f565b610f3e576000838152602081815260408083206001600160a01b03861684529091529020805460ff19166001179055610ef63390565b6001600160a01b0316826001600160a01b0316847f2f8788117e7eff1d82e926ec794901d17c78024a50270940304540a733656f0d60405160405180910390a4506001610406565b506000610406565b6000610f528383610a2f565b15610f3e576000838152602081815260408083206001600160a01b0386168085529252808320805460ff1916905551339286917ff6391f5c32d9c69d2a47ea670b442974b53935d1edc7fd64eb21e047a839171b9190a4506001610406565b6040516001600160a01b0384811660248301528381166044830152606482018390526107029186918216906323b872dd90608401610cdf565b600080602060008451602086016000885af18061100d576040513d6000823e3d81fd5b50506000513d91508115611025578060011415611032565b6001600160a01b0384163b155b1561070257604051635274afe760e01b81526001600160a01b038516600482015260240161043f565b6110658282610a2f565b6110945760405163e2517d3f60e01b81526001600160a01b03821660048201526024810183905260440161043f565b5050565b6000602082840312156110aa57600080fd5b81356001600160e01b0319811681146110c257600080fd5b9392505050565b6000602082840312156110db57600080fd5b5035919050565b80356001600160a01b03811681146110f957600080fd5b919050565b6000806040838503121561111157600080fd5b82359150611121602084016110e2565b90509250929050565b6000806040838503121561113d57600080fd5b50508035926020909101359150565b60006020828403121561115e57600080fd5b6110c2826110e2565b60208082526010908201526f1b9bc81858dd1a5d994818dbdb5b5a5d60821b604082015260600190565b634e487b7160e01b600052601160045260246000fd5b808202811582820484141761040657610406611191565b8181038181111561040657610406611191565b6000826111ee57634e487b7160e01b600052601260045260246000fd5b500490565b808201808211156104065761040661119156fea2646970667358221220300386e4579aba4df23ebd8e501094d7f62264993e01337889ad457d2c2a9b9964736f6c63430008140033",
  "linkReferences": {},
  "deployedLinkReferences": {}
}