{
  "_format": "hh-sol-artifact-1",
  "contractName": "BadgeNFT",
  "sourceName": "contracts/BadgeNFT.sol",
  "abi": [
    {
      "inputs": [
        {
          "internalType": "string",
          "name": "name_",
          "type": "string"
        },
        {
          "internalType": "string",
          "name": "symbol_",
          "type": "string"
        },
        {
          "internalType": "string",
          "name": "baseURI_",
          "type": "string"
        }
      ],
      "stateMutability": "nonpayable",
      "type": "constructor"
    },
    {
      "inputs": [],
      "name": "AccessControlBadConfirmation",
      "type": "error"
    },
    {
      "inputs": [
        {
          "internalType": "address",
          "name": "account",
          "type": "address"
        },
        {
          "internalType": "bytes32",
          "name": "neededRole",
          "type": "bytes32"
        }
      ],
      "name": "AccessControlUnauthorizedAccount",
      "type": "error"
    },
    {
      "inputs": [
        {
          "internalType": "address",
          "name": "sender",
          "type": "address"
        },
        {
          "internalType": "uint256",
          "name": "tokenId",
          "type": "uint256"
        },
        {
          "internalType": "address",
          "name": "owner",
          "type": "address"
        }
      ],
      "name": "ERC721IncorrectOwner",
      "type": "error"
    },
    {
      "inputs": [
        {
          "internalType": "address",
          "name": "operator",
          "type": "address"
        },
        {
          "internalType": "uint256",
          "name": "tokenId",
          "type": "uint256"
        }
      ],
      "name": "ERC721InsufficientApproval",
      "type": "error"
    },
    {
      "inputs": [
        {
          "internalType": "address",
          "name": "approver",
          "type": "address"
        }
      ],
      "name": "ERC721InvalidApprover",
      "type": "error"
    },
    {
      "inputs": [
        {
          "internalType": "address",
          "name": "operator",
          "type": "address"
        }
      ],
      "name": "ERC721InvalidOperator",
      "type": "error"
    },
    {
      "inputs": [
        {
          "internalType": "address",
          "name": "owner",
          "type": "address"
        }
      ],
      "name": "ERC721InvalidOwner",
      "type": "error"
    },
    {
      "inputs": [
        {
          "internalType": "address",
          "name": "receiver",
          "type": "address"
        }
      ],
      "name": "ERC721InvalidReceiver",
      "type": "error"
    },
    {
      "inputs": [
        {
          "internalType": "address",
          "name": "sender",
          "type": "address"
        }
      ],
      "name": "ERC721InvalidSender",
      "type": "error"
    },
    {
      "inputs": [
        {
          "internalType": "uint256",
          "name": "tokenId",
          "type": "uint256"
        }
      ],
      "name": "ERC721NonexistentToken",
      "type": "error"
    },
    {
      "anonymous": false,
      "inputs": [
        {
          "indexed": true,
          "internalType": "address",
          "name": "owner",
          "type": "address"
        },
        {
          "indexed": true,
          "internalType": "address",
          "name": "approved",
          "type": "address"
        },
        {
          "indexed": true,
          "internalType": "uint256",
          "name": "tokenId",
          "type": "uint256"
        }
      ],
      "name": "Approval",
      "type": "event"
    },
    {
      "anonymous": false,
      "inputs": [
        {
          "indexed": true,
          "internalType": "address",
          "name": "owner",
          "type": "address"
        },
        {
          "indexed": true,
          "internalType": "address",
          "name": "operator",
          "type": "address"
        },
        {
          "indexed": false,
          "internalType": "bool",
          "name": "approved",
          "type": "bool"
        }
      ],
      "name": "ApprovalForAll",
      "type": "event"
    },
    {
      "anonymous": false,
      "inputs": [
        {
          "indexed": false,
          "internalType": "uint256",
          "name": "_fromTokenId",
          "type": "uint256"
        },
        {
          "indexed": false,
          "internalType": "uint256",
          "name": "_toTokenId",
          "type": "uint256"
        }
      ],
      "name": "BatchMetadataUpdate",
      "type": "event"
    },
    {
      "anonymous": false,
      "inputs": [
        {
          "indexed": false,
          "internalType": "uint256",
          "name": "_tokenId",
          "type": "uint256"
        }
      ],
      "name": "MetadataUpdate",
      "type": "event"
    },
    {
      "anonymous": false,
      "inputs": [
        {
          "indexed": true,
          "internalType": "bytes32",
          "name": "role",
          "type": "bytes32"
        },
        {
          "indexed": true,
          "internalType": "bytes32",
          "name": "previousAdminRole",
          "type": "bytes32"
        },
        {
          "indexed": true,
          "internalType": "bytes32",
          "name": "newAdminRole",
          "type": "bytes32"
        }
      ],
      "name": "RoleAdminChanged",
      "type": "event"
    },
    {
      "anonymous": false,
      "inputs": [
        {
          "indexed": true,
          "internalType": "bytes32",
          "name": "role",
          "type": "bytes32"
        },
        {
          "indexed": true,
          "internalType": "address",
          "name": "account",
          "type": "address"
        },
        {
          "indexed": true,
          "internalType": "address",
          "name": "sender",
          "type": "address"
        }
      ],
      "name": "RoleGranted",
      "type": "event"
    },
    {
      "anonymous": false,
      "inputs": [
        {
          "indexed": true,
          "internalType": "bytes32",
          "name": "role",
          "type": "bytes32"
        },
        {
          "indexed": true,
          "internalType": "address",
          "name": "account",
          "type": "address"
        },
        {
          "indexed": true,
          "internalType": "address",
          "name": "sender",
          "type": "address"
        }
      ],
      "name": "RoleRevoked",
      "type": "event"
    },
    {
      "anonymous": false,
      "inputs": [
        {
          "indexed": true,
          "internalType": "address",
          "name": "from",
          "type": "address"
        },
        {
          "indexed": true,
          "internalType": "address",
          "name": "to",
          "type": "address"
        },
        {
          "indexed": true,
          "internalType": "uint256",
          "name": "tokenId",
          "type": "uint256"
        }
      ],
      "name": "Transfer",
      "type": "event"
    },
    {
      "inputs": [],
      "name": "DEFAULT_ADMIN_ROLE",
      "outputs": [
        {
          "internalType": "bytes32",
          "name": "",
          "type": "bytes32"
        }
      ],
      "stateMutability": "view",
      "type": "function"
    },
    {
      "inputs": [],
      "name": "MINTER_ROLE",
      "outputs": [
        {
          "internalType": "bytes32",
          "name": "",
          "type": "bytes32"
        }
      ],
      "stateMutability": "view",
      "type": "function"
    },
    {
      "inputs": [
        {
          "internalType": "address",
          "name": "to",
          "type": "address"
        },
        {
          "internalType": "uint256",
          "name": "tokenId",
          "type": "uint256"
        }
      ],
      "name": "approve",
      "outputs": [],
      "stateMutability": "nonpayable",
      "type": "function"
    },
    {
      "inputs": [
        {
          "internalType": "address",
          "name": "owner",
          "type": "address"
        }
      ],
      "name": "balanceOf",
      "outputs": [
        {
          "internalType": "uint256",
          "name": "",
          "type": "uint256"
        }
      ],
      "stateMutability": "view",
      "type": "function"
    },
    {
      "inputs": [],
      "name": "baseURI",
      "outputs": [
        {
          "internalType": "string",
          "name": "",
          "type": "string"
        }
      ],
      "stateMutability": "view",
      "type": "function"
    },
    {
      "inputs": [
        {
          "internalType": "uint256",
          "name": "tokenId",
          "type": "uint256"
        }
      ],
      "name": "getApproved",
      "outputs": [
        {
          "internalType": "address",
          "name": "",
          "type": "address"
        }
      ],
      "stateMutability": "view",
      "type": "function"
    },
    {
      "inputs": [
        {
          "internalType": "bytes32",
          "name": "role",
          "type": "bytes32"
        }
      ],
      "name": "getRoleAdmin",
      "outputs": [
        {
          "internalType": "bytes32",
          "name": "",
          "type": "bytes32"
        }
      ],
      "stateMutability": "view",
      "type": "function"
    },
    {
      "inputs": [
        {
          "internalType": "bytes32",
          "name": "role",
          "type": "bytes32"
        },
        {
          "internalType": "address",
          "name": "account",
          "type": "address"
        }
      ],
      "name": "grantRole",
      "outputs": [],
      "stateMutability": "nonpayable",
      "type": "function"
    },
    {
      "inputs": [
        {
          "internalType": "bytes32",
          "name": "role",
          "type": "bytes32"
        },
        {
          "internalType": "address",
          "name": "account",
          "type": "address"
        }
      ],
      "name": "hasRole",
      "outputs": [
        {
          "internalType": "bool",
          "name": "",
          "type": "bool"
        }
      ],
      "stateMutability": "view",
      "type": "function"
    },
    {
      "inputs": [
        {
          "internalType": "address",
          "name": "owner",
          "type": "address"
        },
        {
          "internalType": "address",
          "name": "operator",
          "type": "address"
        }
      ],
      "name": "isApprovedForAll",
      "outputs": [
        {
          "internalType": "bool",
          "name": "",
          "type": "bool"
        }
      ],
      "stateMutability": "view",
      "type": "function"
    },
    {
      "inputs": [
        {
          "internalType": "address",
          "name": "to",
          "type": "address"
        },
        {
          "internalType": "string",
          "name": "tokenURI_",
          "type": "string"
        }
      ],
      "name": "mintBadge",
      "outputs": [],
      "stateMutability": "nonpayable",
      "type": "function"
    },
    {
      "inputs": [],
      "name": "name",
      "outputs": [
        {
          "internalType": "string",
          "name": "",
          "type": "string"
        }
      ],
      "stateMutability": "view",
      "type": "function"
    },
    {
      "inputs": [
        {
          "internalType": "uint256",
          "name": "tokenId",
          "type": "uint256"
        }
      ],
      "name": "ownerOf",
      "outputs": [
        {
          "internalType": "address",
          "name": "",
          "type": "address"
        }
      ],
      "stateMutability": "view",
      "type": "function"
    },
    {
      "inputs": [
        {
          "internalType": "bytes32",
          "name": "role",
          "type": "bytes32"
        },
        {
          "internalType": "address",
          "name": "callerConfirmation",
          "type": "address"
        }
      ],
      "name": "renounceRole",
      "outputs": [],
      "stateMutability": "nonpayable",
      "type": "function"
    },
    {
      "inputs": [
        {
          "internalType": "bytes32",
          "name": "role",
          "type": "bytes32"
        },
        {
          "internalType": "address",
          "name": "account",
          "type": "address"
        }
      ],
      "name": "revokeRole",
      "outputs": [],
      "stateMutability": "nonpayable",
      "type": "function"
    },
    {
      "inputs": [
        {
          "internalType": "address",
          "name": "from",
          "type": "address"
        },
        {
          "internalType": "address",
          "name": "to",
          "type": "address"
        },
        {
          "internalType": "uint256",
          "name": "tokenId",
          "type": "uint256"
        }
      ],
      "name": "safeTransferFrom",
      "outputs": [],
      "stateMutability": "nonpayable",
      "type": "function"
    },
    {
      "inputs": [
        {
          "internalType": "address",
          "name": "from",
          "type": "address"
        },
        {
          "internalType": "address",
          "name": "to",
          "type": "address"
        },
        {
          "internalType": "uint256",
          "name": "tokenId",
          "type": "uint256"
        },
        {
          "internalType": "bytes",
          "name": "data",
          "type": "bytes"
        }
      ],
      "name": "safeTransferFrom",
      "outputs": [],
      "stateMutability": "nonpayable",
      "type": "function"
    },
    {
      "inputs": [
        {
          "internalType": "address",
          "name": "operator",
          "type": "address"
        },
        {
          "internalType": "bool",
          "name": "approved",
          "type": "bool"
        }
      ],
      "name": "setApprovalForAll",
      "outputs": [],
      "stateMutability": "nonpayable",
      "type": "function"
    },
    {
      "inputs": [
        {
          "internalType": "string",
          "name": "newBase",
          "type": "string"
        }
      ],
      "name": "setBaseURI",
      "outputs": [],
      "stateMutability": "nonpayable",
      "type": "function"
    },
    {
      "inputs": [
        {
          "internalType": "bytes4",
          "name": "interfaceId",
          "type": "bytes4"
        }
      ],
      "name": "supportsInterface",
      "outputs": [
        {
          "internalType": "bool",
          "name": "",
          "type": "bool"
        }
      ],
      "stateMutability": "view",
      "type": "function"
    },
    {
      "inputs": [],
      "name": "symbol",
      "outputs": [
        {
          "internalType": "string",
          "name": "",
          "type": "string"
        }
      ],
      "stateMutability": "view",
      "type": "function"
    },
    {
      "inputs": [
        {
          "internalType": "uint256",
          "name": "tokenId",
          "type": "uint256"
        }
      ],
      "name": "tokenURI",
      "outputs": [
        {
          "internalType": "string",
          "name": "",
          "type": "string"
        }
      ],
      "stateMutability": "view",
      "type": "function"
    },
    {
      "inputs": [
        {
          "internalType": "address",
          "name": "from",
          "type": "address"
        },
        {
          "internalType": "address",
          "name": "to",
          "type": "address"
        },
        {
          "internalType": "uint256",
          "name": "tokenId",
          "type": "uint256"
        }
      ],
      "name": "transferFrom",
      "outputs": [],
      "stateMutability": "nonpayable",
      "type": "function"
    }
  ],
  "bytecode": "0x60806040523480156200001157600080fd5b5060405162001b5a38038062001b5a8339810160408190526200003491620001f6565b8282600062000044838262000316565b50600162000053828262000316565b5062000065915060009050336200007e565b50600962000074828262000316565b50505050620003e2565b60008281526007602090815260408083206001600160a01b038516845290915281205460ff16620001275760008381526007602090815260408083206001600160a01b03861684529091529020805460ff19166001179055620000de3390565b6001600160a01b0316826001600160a01b0316847f2f8788117e7eff1d82e926ec794901d17c78024a50270940304540a733656f0d60405160405180910390a45060016200012b565b5060005b92915050565b634e487b7160e01b600052604160045260246000fd5b600082601f8301126200015957600080fd5b81516001600160401b038082111562000176576200017662000131565b604051601f8301601f19908116603f01168101908282118183101715620001a157620001a162000131565b81604052838152602092508683858801011115620001be57600080fd5b600091505b83821015620001e25785820183015181830184015290820190620001c3565b600093810190920192909252949350505050565b6000806000606084860312156200020c57600080fd5b83516001600160401b03808211156200022457600080fd5b620002328783880162000147565b945060208601519150808211156200024957600080fd5b620002578783880162000147565b935060408601519150808211156200026e57600080fd5b506200027d8682870162000147565b9150509250925092565b600181811c908216806200029c57607f821691505b602082108103620002bd57634e487b7160e01b600052602260045260246000fd5b50919050565b601f8211156200031157600081815260208120601f850160051c81016020861015620002ec5750805b601f850160051c820191505b818110156200030d57828155600101620002f8565b5050505b505050565b81516001600160401b0381111562000332576200033262000131565b6200034a8162000343845462000287565b84620002c3565b602080601f831160018114620003825760008415620003695750858301515b600019600386901b1c1916600185901b1785556200030d565b600085815260208120601f198616915b82811015620003b35788860151825594840194600190910190840162000392565b5085821015620003d25787850151600019600388901b60f8161c191681555b5050505050600190811b01905550565b61176880620003f26000396000f3fe608060405234801561001057600080fd5b506004361061014d5760003560e01c80636b2bafc8116100c3578063a22cb4651161007c578063a22cb465146102c3578063b88d4fde146102d6578063c87b56dd146102e9578063d5391393146102fc578063d547741f14610323578063e985e9c51461033657600080fd5b80636b2bafc8146102725780636c0360eb1461028557806370a082311461028d57806391d14854146102a057806395d89b41146102b3578063a217fddf146102bb57600080fd5b8063248a9ca311610115578063248a9ca3146101e25780632f2ff15d1461021357806336568abe1461022657806342842e0e1461023957806355f804b31461024c5780636352211e1461025f57600080fd5b806301ffc9a71461015257806306fdde031461017a578063081812fc1461018f578063095ea7b3146101ba57806323b872dd146101cf575b600080fd5b6101656101603660046111cf565b610349565b60405190151581526020015b60405180910390f35b61018261035a565b604051610171919061123c565b6101a261019d36600461124f565b6103ec565b6040516001600160a01b039091168152602001610171565b6101cd6101c8366004611284565b610415565b005b6101cd6101dd3660046112ae565b610424565b6102056101f036600461124f565b60009081526007602052604090206001015490565b604051908152602001610171565b6101cd6102213660046112ea565b6104b4565b6101cd6102343660046112ea565b6104d9565b6101cd6102473660046112ae565b610511565b6101cd61025a3660046113c2565b61052c565b6101a261026d36600461124f565b610543565b6101cd6102803660046113f7565b61054e565b6101826105a4565b61020561029b366004611445565b610632565b6101656102ae3660046112ea565b61067a565b6101826106a5565b610205600081565b6101cd6102d1366004611460565b6106b4565b6101cd6102e436600461149c565b6106bf565b6101826102f736600461124f565b6106d7565b6102057f9f2df0fed2c77648de5860a4cc508cd0818c85b8b8a1ab4ceeef8d981c8956a681565b6101cd6103313660046112ea565b6107e8565b610165610344366004611518565b61080d565b60006103548261083b565b92915050565b60606000805461036990611542565b80601f016020809104026020016040519081016040528092919081815260200182805461039590611542565b80156103e25780601f106103b7576101008083540402835291602001916103e2565b820191906000526020600020905b8154815290600101906020018083116103c557829003601f168201915b5050505050905090565b60006103f782610860565b506000828152600460205260409020546001600160a01b0316610354565b610420828233610899565b5050565b6001600160a01b03821661045357604051633250574960e11b8152600060048201526024015b60405180910390fd5b60006104608383336108a6565b9050836001600160a01b0316816001600160a01b0316146104ae576040516364283d7b60e01b81526001600160a01b038086166004830152602482018490528216604482015260640161044a565b50505050565b6000828152600760205260409020600101546104cf8161099f565b6104ae83836109ac565b6001600160a01b03811633146105025760405163334bd91960e11b815260040160405180910390fd5b61050c8282610a40565b505050565b61050c838383604051806020016040528060008152506106bf565b60006105378161099f565b600961050c83826115c2565b600061035482610860565b7f9f2df0fed2c77648de5860a4cc508cd0818c85b8b8a1ab4ceeef8d981c8956a66105788161099f565b6008805490600061058883611682565b909155505060085461059a8482610aad565b6104ae8184610ac7565b600980546105b190611542565b80601f01602080910402602001604051908101604052809291908181526020018280546105dd90611542565b801561062a5780601f106105ff5761010080835404028352916020019161062a565b820191906000526020600020905b81548152906001019060200180831161060d57829003601f168201915b505050505081565b60006001600160a01b03821661065e576040516322718ad960e21b81526000600482015260240161044a565b506001600160a01b031660009081526003602052604090205490565b60009182526007602090815260408084206001600160a01b0393909316845291905290205460ff1690565b60606001805461036990611542565b610420338383610b17565b6106ca848484610424565b6104ae3385858585610bb6565b60606106e282610860565b50600082815260066020526040812080546106fc90611542565b80601f016020809104026020016040519081016040528092919081815260200182805461072890611542565b80156107755780601f1061074a57610100808354040283529160200191610775565b820191906000526020600020905b81548152906001019060200180831161075857829003601f168201915b50505050509050600061079360408051602081019091526000815290565b905080516000036107a5575092915050565b8151156107d75780826040516020016107bf9291906116a9565b60405160208183030381529060405292505050919050565b6107e084610ce1565b949350505050565b6000828152600760205260409020600101546108038161099f565b6104ae8383610a40565b6001600160a01b03918216600090815260056020908152604080832093909416825291909152205460ff1690565b60006001600160e01b03198216637965db0b60e01b1480610354575061035482610d56565b6000818152600260205260408120546001600160a01b03168061035457604051637e27328960e01b81526004810184905260240161044a565b61050c8383836001610d7b565b6000828152600260205260408120546001600160a01b03908116908316156108d3576108d3818486610e81565b6001600160a01b03811615610911576108f0600085600080610d7b565b6001600160a01b038116600090815260036020526040902080546000190190555b6001600160a01b03851615610940576001600160a01b0385166000908152600360205260409020805460010190555b60008481526002602052604080822080546001600160a01b0319166001600160a01b0389811691821790925591518793918516917fddf252ad1be2c89b69c2b068fc378daa952ba7f163c4a11628f55a4df523b3ef91a4949350505050565b6109a98133610ee5565b50565b60006109b8838361067a565b610a385760008381526007602090815260408083206001600160a01b03861684529091529020805460ff191660011790556109f03390565b6001600160a01b0316826001600160a01b0316847f2f8788117e7eff1d82e926ec794901d17c78024a50270940304540a733656f0d60405160405180910390a4506001610354565b506000610354565b6000610a4c838361067a565b15610a385760008381526007602090815260408083206001600160a01b0386168085529252808320805460ff1916905551339286917ff6391f5c32d9c69d2a47ea670b442974b53935d1edc7fd64eb21e047a839171b9190a4506001610354565b610420828260405180602001604052806000815250610f1e565b6000828152600660205260409020610adf82826115c2565b506040518281527ff8e1a15aba9398e019f0b49df1a4fde98ee17ae345cb5f6b5e2c27f5033e8ce79060200160405180910390a15050565b6001600160a01b038216610b4957604051630b61174360e31b81526001600160a01b038316600482015260240161044a565b6001600160a01b03838116600081815260056020908152604080832094871680845294825291829020805460ff191686151590811790915591519182527f17307eab39ab6107e8899845ad3d59bd9653f200f220920489ca2b5937696c31910160405180910390a3505050565b6001600160a01b0383163b15610cda57604051630a85bd0160e11b81526001600160a01b0384169063150b7a0290610bf89088908890879087906004016116d8565b6020604051808303816000875af1925050508015610c33575060408051601f3d908101601f19168201909252610c3091810190611715565b60015b610c9c573d808015610c61576040519150601f19603f3d011682016040523d82523d6000602084013e610c66565b606091505b508051600003610c9457604051633250574960e11b81526001600160a01b038516600482015260240161044a565b805160208201fd5b6001600160e01b03198116630a85bd0160e11b14610cd857604051633250574960e11b81526001600160a01b038516600482015260240161044a565b505b5050505050565b6060610cec82610860565b506000610d0460408051602081019091526000815290565b90506000815111610d245760405180602001604052806000815250610d4f565b80610d2e84610f36565b604051602001610d3f9291906116a9565b6040516020818303038152906040525b9392505050565b60006001600160e01b03198216632483248360e11b1480610354575061035482610fc9565b8080610d8f57506001600160a01b03821615155b15610e51576000610d9f84610860565b90506001600160a01b03831615801590610dcb5750826001600160a01b0316816001600160a01b031614155b8015610dde5750610ddc818461080d565b155b15610e075760405163a9fbf51f60e01b81526001600160a01b038416600482015260240161044a565b8115610e4f5783856001600160a01b0316826001600160a01b03167f8c5be1e5ebec7d5bd14f71427d1e84f3dd0314c0f7b2291e5b200ac8c7c3b92560405160405180910390a45b505b5050600090815260046020526040902080546001600160a01b0319166001600160a01b0392909216919091179055565b610e8c838383611019565b61050c576001600160a01b038316610eba57604051637e27328960e01b81526004810182905260240161044a565b60405163177e802f60e01b81526001600160a01b03831660048201526024810182905260440161044a565b610eef828261067a565b6104205760405163e2517d3f60e01b81526001600160a01b03821660048201526024810183905260440161044a565b610f28838361107c565b61050c336000858585610bb6565b60606000610f43836110e1565b600101905060008167ffffffffffffffff811115610f6357610f63611316565b6040519080825280601f01601f191660200182016040528015610f8d576020820181803683370190505b5090508181016020015b600019016f181899199a1a9b1b9c1cb0b131b232b360811b600a86061a8153600a8504945084610f9757509392505050565b60006001600160e01b031982166380ac58cd60e01b1480610ffa57506001600160e01b03198216635b5e139f60e01b145b8061035457506301ffc9a760e01b6001600160e01b0319831614610354565b60006001600160a01b038316158015906107e05750826001600160a01b0316846001600160a01b031614806110535750611053848461080d565b806107e05750506000908152600460205260409020546001600160a01b03908116911614919050565b6001600160a01b0382166110a657604051633250574960e11b81526000600482015260240161044a565b60006110b4838360006108a6565b90506001600160a01b0381161561050c576040516339e3563760e11b81526000600482015260240161044a565b60008072184f03e93ff9f4daa797ed6e38ed64bf6a1f0160401b83106111205772184f03e93ff9f4daa797ed6e38ed64bf6a1f0160401b830492506040015b6d04ee2d6d415b85acef8100000000831061114c576d04ee2d6d415b85acef8100000000830492506020015b662386f26fc10000831061116a57662386f26fc10000830492506010015b6305f5e1008310611182576305f5e100830492506008015b612710831061119657612710830492506004015b606483106111a8576064830492506002015b600a83106103545760010192915050565b6001600160e01b0319811681146109a957600080fd5b6000602082840312156111e157600080fd5b8135610d4f816111b9565b60005b838110156112075781810151838201526020016111ef565b50506000910152565b600081518084526112288160208601602086016111ec565b601f01601f19169290920160200192915050565b602081526000610d4f6020830184611210565b60006020828403121561126157600080fd5b5035919050565b80356001600160a01b038116811461127f57600080fd5b919050565b6000806040838503121561129757600080fd5b6112a083611268565b946020939093013593505050565b6000806000606084860312156112c357600080fd5b6112cc84611268565b92506112da60208501611268565b9150604084013590509250925092565b600080604083850312156112fd57600080fd5b8235915061130d60208401611268565b90509250929050565b634e487b7160e01b600052604160045260246000fd5b600067ffffffffffffffff8084111561134757611347611316565b604051601f8501601f19908116603f0116810190828211818310171561136f5761136f611316565b8160405280935085815286868601111561138857600080fd5b858560208301376000602087830101525050509392505050565b600082601f8301126113b357600080fd5b610d4f8383356020850161132c565b6000602082840312156113d457600080fd5b813567ffffffffffffffff8111156113eb57600080fd5b6107e0848285016113a2565b6000806040838503121561140a57600080fd5b61141383611268565b9150602083013567ffffffffffffffff81111561142f57600080fd5b61143b858286016113a2565b9150509250929050565b60006020828403121561145757600080fd5b610d4f82611268565b6000806040838503121561147357600080fd5b61147c83611268565b91506020830135801515811461149157600080fd5b809150509250929050565b600080600080608085870312156114b257600080fd5b6114bb85611268565b93506114c960208601611268565b925060408501359150606085013567ffffffffffffffff8111156114ec57600080fd5b8501601f810187136114fd57600080fd5b61150c8782356020840161132c565b91505092959194509250565b6000806040838503121561152b57600080fd5b61153483611268565b915061130d60208401611268565b600181811c9082168061155657607f821691505b60208210810361157657634e487b7160e01b600052602260045260246000fd5b50919050565b601f82111561050c57600081815260208120601f850160051c810160208610156115a35750805b601f850160051c820191505b81811015610cd8578281556001016115af565b815167ffffffffffffffff8111156115dc576115dc611316565b6115f0816115ea8454611542565b8461157c565b602080601f831160018114611625576000841561160d5750858301515b600019600386901b1c1916600185901b178555610cd8565b600085815260208120601f198616915b8281101561165457888601518255948401946001909101908401611635565b50858210156116725787850151600019600388901b60f8161c191681555b5050505050600190811b01905550565b6000600182016116a257634e487b7160e01b600052601160045260246000fd5b5060010190565b600083516116bb8184602088016111ec565b8351908301906116cf8183602088016111ec565b01949350505050565b6001600160a01b038581168252841660208201526040810183905260806060820181905260009061170b90830184611210565b9695505050505050565b60006020828403121561172757600080fd5b8151610d4f816111b956fea26469706673582212208fd45149721f365477c03a4b35d840784e2cb5a95f40fd13377620a0e0f0527a64736f6c63430008140033",
  "linkReferences": {},
  "deployedLinkReferences": {}
}